S014000074657355534152545F365F322E737265630F
S113000046C2000065C2000063C2000061C2000075
S11300105FC200005DC200005BC2000059C2000064
S113002057C2000055C2000053C2000051C2000074
S11300304FC200004DC200004BC2000049C2000084
S113004047C2000045C2000043C2000041C2000094
S11300503FC200003DC200003BC2000039C20000A4
S113006037C2000035C2000033C2000031C20000B4
S11300702FC200002DC200002BC2000029C20000C4
S113008027C2000025C2000023C2000021C20000D4
S11300901FC200001DC200001BC2000019C20000E4
S11300A017C2000015C2000013C2000011C20000F4
S11300B00FC200000DC200000BC2000009C2000004
S11300C007C2000005C2000003C2000001C2000014
S11300D0FFC10000FDC10000FBC10000F9C1000028
S11300E0F7C10000F5C10000F3C10000F1C1000038
S11300F0EFC10000EDC10000EBC10000E9C1000048
S1130100E7C10000E5C10000E3C10000E1C1000057
S1130110DFC10000DDC10000DBC10000D9C1000067
S1130120D7C10000D5C10000D3C10000D1C1000077
S1130130CFC10000CDC10000CBC10000C9C1000087
S1130140C7C10000C5C10000C3C10000C1C1000097
S1130150BFC10000BDC10000BBC10000B9C10000A7
S1130160B7C10000B5C10000B3C10000B1C10000B7
S1130170AFC10000ADC10000ABC10000A9C10000C7
S1130180A7C10000A5C10000A3C10000A1C10000D7
S11301909FC100009DC100009BC1000099C10000E7
S11301A097C1000095C1000093C1000091C10000F7
S11301B08FC100008DC100008BC1000089C1000007
S11301C087C1000085C1000083C1000081C1000017
S11301D07FC100007DC100007BC1000079C1000027
S11301E077C1000075C1000073C1000071C1000037
S11301F06FC100006DC100006BC100000000000071
S1130200000000202020202000205050500000003A
S1130210005050F850F850502078A07028F020C0BA
S1130220C810204098186090A040A89068602040B2
S1130230000000001020404040201040201010100A
S11302402040005020F8205000002020F8202000FA
S113025000000000602040000000F80000000000E2
S1130260000000606000081020408000708898A89A
S1130270C8887020602020202070708808102040DA
S1130280F8F810201008887010305090F81010F80A
S113029080F008088870304080F0888870F8081072
S11302A020404040708888708888707088887808FA
S11302B010600060600060600000606000602040CA
S11302C0081020402010080000F800F800008040CA
S11302D02010204080708808102000207088086852
S11302E0A8A87070888888F88888F08888F088883A
S11302F0F070888080808870E09088888890E0F82A
S11303008080F08080F8F88080E080808070888031
S113031080988870888888F88888887020202020B1
S11303202070381010101090608890A0C0A09088A1
S1130330808080808080F888D8A888888888888889
S1130340C8A898888870888888888870F08888F019
S113035080808070888888A89068F08888F0A09051
S113036088788080700808F0F820202020202088D9
S113037088888888887088888888885020888888B1
S1130380A8A8D88888885020508888888850202039
S11303902020F80810204080F83820202020203821
S11303A000804020100800E02020202020E0205081
S11303B08800000000000000000000F84020100049
S11303C0000000000070087888788080B0C88888B1
S11303D0F000007080808870080868988888780029
S11303E0007088F88070304840E040404000007859
S11303F0887808308080B0C88888882000602020F1
S113040020701000301010906040404850605048F8
S1130410602020202020700000D0A8A88888000038
S1130420B0C8888888000070888888700000F088C8
S1130430F08080000068987808080000B0C88080C8
S113044080000070807008F04040E0404048300078
S11304500088888898680000888888502000008870
S113046088A8A85000008850205088000088887808
S113047008700000F8102040F810202040202010C0
S11304802020202020202040202010202040112443
S11304901FBECFEFCDBFDFE5DEBF00E00CBF10E233
S11304A0A0E0B0E2E2E7F9E100E00BBF02C0079090
S11304B00D92A633B107D9F722E2A6E3B0E201C058
S11304C01D92AC39B207E1F70E94350C0C94B70CBD
S11304D097CD6150710981099109D9F70895BF92A7
S11304E0CF92DF92EF92FF920F931F93CF93DF93FC
S11304F01F92CDB7DEB700E016E06894FF24F3F84E
S1130500F801F68265E370E080E090E0E2DFF80154
S1130510F58265E370E080E090E0DBDF0F2EFBE224
S1130520BF2EF02DB98280EA99E0BAD6C12CD12C25
S1130530760100E412E42FE030E043E0BE016F5F97
S11305407F4F80EA99E0DBD600E616E0FF24F394BF
S1130550F801F682B982BE016F5F7F4F80EA99E0AD
S1130560E8D6F801F682E0EAF9E0818185FFFDCF63
S113057080EA8093A009E0EAF9E0818186FFFDCF5B
S1130580E0EAF9E080E481838081BE016F5F7F4F00
S113059080EA99E0E4D68BE28983BE016F5F7F4FE6
S11305A080EA99E0C6D681E080936606E0EAF9E045
S11305B0818185FFFDCF86EA8093A009E0EAF9E016
S11305C0818186FFFDCFE0EAF9E080E481838081C8
S11305D0BE016F5F7F4F80EA99E0C1D68BE28983C9
S11305E0BE016F5F7F4F80EA99E0A3D681E08093DC
S11305F06606E0EAF9E0818185FFFDCF88EC80930F
S1130600A009E0EAF9E0818186FFFDCFE0EAF9E0A4
S113061080E481838081BE016F5F7F4F80EA99E02F
S11306209ED68BE28983BE016F5F7F4F80EA99E09B
S113063080D681E080936606E0EAF9E0818185FF57
S1130640FDCF82EA8093A009E0EAF9E0818186FF88
S1130650FDCFE0EAF9E080E481838081BE016F5F31
S11306607F4F80EA99E07BD68BE28983BE016F5F7E
S11306707F4F80EA99E05DD681E080936606E0EAE8
S1130680F9E0818185FFFDCF8FE28093A009E0EA44
S1130690F9E0818186FFFDCFE0EAF9E080E481831F
S11306A08081BE016F5F7F4F80EA99E058D68BE26C
S11306B08983BE016F5F7F4F80EA99E03AD681E07B
S11306C080936606E0EAF9E0818185FFFDCF88EF3B
S11306D08093A009E0EAF9E0818186FFFDCFE0EA9A
S11306E0F9E080E481838081BE016F5F7F4F80EAFF
S11306F099E035D68BE28983BE016F5F7F4F80EA34
S113070099E017D681E080936606E0EAF9E08181FA
S113071085FFFDCF1092A009E0EAF9E0818186FF10
S1130720FDCFE0EAF9E080E481838081BE016F5F60
S11307307F4F80EA99E013D68BE28983BE016F5F15
S11307407F4F80EA99E0F5D581E080936606E0EA80
S1130750F9E0818185FFFDCF81E28093A009E0EA81
S1130760F9E0818186FFFDCFE0EAF9E080E481834E
S11307708081BE016F5F7F4F80EA99E0F0D58BE204
S11307808983BE016F5F7F4F80EA99E0D2D581E013
S113079080936606E0EAF9E0818185FFFDCF81E878
S11307A08093A009E0EAF9E0818186FFFDCFE0EAC9
S11307B0F9E080E481838081BE016F5F7F4F80EA2E
S11307C099E0CDD58BE28983BE016F5F7F4F80EACC
S11307D099E0AFD581E080936606E0EAF9E0818193
S11307E085FFFDCF81E28093A009E0EAF9E08181F1
S11307F086FFFDCFE0EAF9E080E481838081BE01D9
S11308006F5F7F4F80EA99E0AAD58BE28983BE01AE
S11308106F5F7F4F80EA99E08CD581E08093660614
S1130820E0EAF9E0818185FFFDCF8FEA8093A0099A
S1130830E0EAF9E0818186FFFDCFE0EAF9E080E4B7
S113084081838081BE016F5F7F4F80EA99E087D505
S11308500F90DF91CF911F910F91FF90EF90DF9058
S1130860CF90BF900895FF920F931F93CF93DF9380
S11308701F92CDB7DEB7082FF62E142F8BD50F702D
S1130880006B8BE28983BE016F5F7F4F80EA99E042
S113089050D581E080936606E0EAF9E0918195FF06
S11308A0FDCF0093A009E0EAF9E0818186FFFDCF46
S11308B0E0EAF9E080E481838081BE016F5F7F4FCD
S11308C080EA99E04CD50F2D0F7702950F700061E7
S11308D08BE28983BE016F5F7F4F80EA99E029D55F
S11308E081E080936606E0EAF9E0818185FFFDCF2F
S11308F00093A009E0EAF9E0818186FFFDCFE0EAF8
S1130900F9E080E481838081BE016F5F7F4F80EADC
S113091099E025D50F2D0F708BE28983BE016F5F9F
S11309207F4F80EA99E005D581E080936606E0EA8E
S1130930F9E0818185FFFDCF0093A009E0EAF9E0A9
S1130940818186FFFDCFE0EAF9E080E48183808144
S1130950BE016F5F7F4F80EA99E001D58BE2898306
S1130960BE016F5F7F4F80EA99E0E3D481E080931A
S11309706506E0EAF9E0818185FFFDCF1093A009C7
S1130980E0EAF9E0818186FFFDCFE0EAF9E080E466
S11309908183808181E080936606BE016F5F7F4F13
S11309A080EA99E0DCD40F90DF91CF911F910F91F1
S11309B0FF9008950F931F93CF93DF931F92CDB7AA
S11309C0DEB786E390E2E1D48ADD8BE28983BE015F
S11309D06F5F7F4F80EA99E0ACD481E08093660634
S11309E0E0EAF9E0818185FFFDCF80E48093A009EE
S11309F0E0EAF9E0818186FFFDCFE0EAF9E080E4F6
S1130A0081838081BE016F5F7F4F80EA99E0A7D424
S1130A1000E00AC040E0612F802F25DF1F5F1038FF
S1130A20C9F70F5F043011F010E0F4CF0F90DF919D
S1130A30CF911F910F910895FF920F931F93CF931E
S1130A40DF9388234CF1603238F5D42FC82FF62E6B
S1130A50F694F694F69470E088E0F89E60197109B3
S1130A60112481E090E08C0102C0000F111F6A95EF
S1130A70E2F76C2F8F2D9CD4D13021F028F0D230A6
S1130A8031F006C0802B04C00095802301C080276C
S1130A90482F6C2F8F2DE7DEDF91CF911F910F919F
S1130AA0FF90089585C40895FC01918195FFFDCFC1
S1130AB0608380E090E00895FC0191819923ECF734
S1130AC0808108954F925F926F927F928F929F924E
S1130AD0AF92BF92EF92FF920F931F93CF937C013B
S1130AE04A015B0128013901FC01848182FF16C09F
S1130AF0D901C801689412F8B695A795979587957A
S1130B001694D1F7B901A801032E36E176956795BD
S1130B10579547953A95D1F7302D15C0D901C8019D
S1130B20689413F8B695A795979587951694D1F779
S1130B30B901A801032E37E1769567955795479536
S1130B403A95D1F7302D88159905AA05BB0508F407
S1130B50A2C084169506A606B70608F49EC0F7013F
S1130B60848182FD04C0880C991CAA1CBB1CC3018F
S1130B70B201A5019401D0D62F3F3105410551059D
S1130B8008F48DC08FEF90E0A0E0B0E0C9EF05C09D
S1130B90281739074A075B0758F0880F991FAA1FBF
S1130BA0BB1FCD3F0CF48160CF5FC73089F74DC0C8
S1130BB0CC230CF04AC0D501C401880F991FAA1F89
S1130BC0BB1F880F991FAA1FBB1F880F991FAA1F3D
S1130BD0BB1F481A590A6A0A7B0ACE3FECF48DEF10
S1130BE09FEF8C1B9109C7FD939504C0440C551CC1
S1130BF0661C771C8A95D2F7D501C401B695A795D2
S1130C0097958795BC01CD01640D751D861D971DB3
S1130C10A501940181D635C083E08C0FA501940110
S1130C2004C0220F331F441F551F8A95D2F7DA01DF
S1130C30C901B695A79597958795BC01CD01640D1B
S1130C40751D861D971D68D61CC083E08C0FA501F9
S1130C50940104C0220F331F441F551F8A95D2F7F5
S1130C60DA01C901B695A79597958795BC01CD0181
S1130C70640D751D861D971D4FD6215031094109FC
S1130C805109832F8F70C295C07FC82BF701C7838A
S1130C90268381E018C080E016C080E014C0D5012E
S1130CA0C401880F991FAA1FBB1F880F991FAA1F71
S1130CB0BB1F880F991FAA1FBB1F481A590A6A0A2B
S1130CC07B0AC9EF8CCFCF911F910F91FF90EF90CA
S1130CD0BF90AF909F908F907F906F905F904F9058
S1130CE008950F931F93CF93DF93EC018B0100972B
S1130CF009F4E6C0803C910521F460E180E009D468
S1130D00DFC0C03881E0D80721F462E080E001D47C
S1130D10D7C0C115E1E0DE0721F461E080E0F9D33A
S1130D20CFC0C038F3E0DF0721F461E081E0F1D304
S1130D30C7C0C03983E0D80721F461E082E0E9D379
S1130D40BFC0C115E2E0DE0721F462E081E0E1D337
S1130D50B7C0C034F2E0DF0721F462E082E0D9D307
S1130D60AFC0C03283E0D80721F464E082E0D1D37D
S1130D70A7C0C115E8E0DE0721F461E083E0C9D330
S1130D809FC0C115F9E0DF0721F461E084E0C1D31D
S1130D9097C0C1158AE0D80721F461E085E0B9D392
S1130DA08FC0C115EBE0DE0721F461E086E0B1D32A
S1130DB087C0C034F8E0DF0721F462E083E0A9D300
S1130DC07FC0C03489E0D80721F462E084E0A1D375
S1130DD077C0C034EAE0DE0721F462E085E099D30D
S1130DE06FC0C039F8E0DF0721F464E083E091D3F9
S1130DF067C0C03989E0D80721F464E084E089D36E
S1130E005FC0C039EAE0DE0721F464E085E081D305
S1130E1057C0C039FBE0DF0721F464E086E079D3F2
S1130E204FC0C03C88E0D80721F468E083E071D368
S1130E3047C0C03CE9E0DE0721F468E084E069D300
S1130E403FC0C03AF8E0DF0721F460E183E061D3FA
S1130E5037C0C03A89E0D80721F460E184E059D36F
S1130E602FC0C03AEAE0DE0721F460E185E051D307
S1130E7027C0C03AFBE0DF0721F460E186E049D3F4
S1130E801FC0C03B88E0D80721F460E283E041D36F
S1130E9017C0C03BE9E0DE0721F460E284E039D307
S1130EA00FC0C038F4E0DF0721F460E483E031D3FD
S1130EB007C0C03A84E0D80719F460E485E029D378
S1130EC08D818F738D83F80195818481892B96811F
S1130ED0911198E0892B8D83F801408151816281C1
S1130EE0738100E018E428EE31E0CE01EBDD9C8153
S1130EF098609C839C8190619C83DF91CF911F912A
S1130F000F910895CF92DF92EF92FF920F931F9368
S1130F10CF93DF93EC01D901C801B695A7959795B6
S1130F208795481759076A077B0770F46A017B01A4
S1130F30CC0CDD1CEE1CFF1CC901B801A7019601F5
S1130F40EBD42150310902C020E030E0832F8F70B0
S1130F508F832E83DF91CF911F910F91FF90EF909C
S1130F60DF90CF900895EF92FF920F931F93CF934A
S1130F70DF93EC017B01009709F47BC1803C910570
S1130F8021F460E180E0C5D274C18038914021F43D
S1130F9062E080E0BED26DC1C11581E0D80721F4C2
S1130FA061E080E0B6D265C1C038E3E0DE0721F439
S1130FB061E081E0AED25DC1C039F3E0DF0721F426
S1130FC061E082E0A6D255C1C11532E0D30721F415
S1130FD062E081E09ED24DC1C03482E0D80721F4A2
S1130FE062E082E096D245C1C032E3E0DE0721F43C
S1130FF064E082E08ED23DC1C115F8E0DF0721F440
S113100061E083E086D235C1C11539E0D30721F40C
S113101061E084E07ED22DC1C1158AE0D80721F4B5
S113102061E085E076D225C1C115EBE0DE0721F44D
S113103061E086E06ED21DC1C034F8E0DF0721F420
S113104062E083E066D215C1C03439E0D30721F4ED
S113105062E084E05ED20DC1C0348AE0D80721F496
S113106062E085E056D205C1C039E8E0DE0721F42C
S113107064E083E04ED2FDC0C039F9E0DF0721F41B
S113108064E084E046D2F5C0C0393AE0D30721F4E5
S113109064E085E03ED2EDC0C0398BE0D80721F48E
S11310A064E086E036D2E5C0C03CE8E0DE0721F427
S11310B068E083E02ED2DDC0C03CF9E0DF0721F414
S11310C068E084E026D2D5C0C03A38E0D30761F4A2
S11310D060E183E01ED2E0EAF8E084818F7E8483BD
S11310E0F7012481225043C0C03AF9E0DF0721F41C
S11310F060E184E00ED2BDC0C03A3AE0D30721F4E7
S113110060E185E006D2B5C0C03A8BE0D80721F48F
S113111060E186E0FED1ADC0C03BE8E0DE0721F42B
S113112060E283E0F6D1A5C0C03BF9E0DF0721F41B
S113113060E284E0EED19DC0C03834E0D30721F4EE
S113114060E483E0E6D195C0C03A84E0D80721F496
S113115060E485E0DED18DC08C818F7E8C83FB01C1
S113116024812250CE01C03AF8E0DF0731F48091A7
S11311704E0684FD86C011E185C0803B38E09307AC
S113118079F0803AE9E09E0731F430916E0634FD3F
S11311907CC019E110C0803BF9E09F07A9F001C0B1
S11311A015E1803A3AE0930731F480918E0684FD8C
S11311B06EC011E20CC0803A9B4049F48091AE06A7
S11311C084FD04C019E203C01DE101C01DE2E12F4A
S11311D0E695E695E69530E2E39FF0011124FA5F87
S11311E0177081E090E0012E02C0880F991F0A94C5
S11311F0E2F78183223010F040E001C040E4DF01D7
S11312005096A10FB11D3FB7F8942C9127702C93E1
S11312109C91942B9C933FBF85838D81806C8D839F
S1131220F70184818D7F813021F48D8182608D83EB
S113123003C08D818D7F8D83F7018581882321F003
S11312408D8184608D8303C08D818B7F8D83F701B5
S1131250408151816281738100E018E428EE31E01D
S1131260CE0150DE8C8188608C838C8180618C837C
S113127010C08C818F7E8C83F70124812250CE0193
S11312807CCF15E180EA98E086CF1DE194CF15E28A
S11312909ECFDF91CF911F910F91FF90EF90089512
S11312A0803A28E0920721F460E183E032C1089596
S11312B0803B28E0920721F460E283E02AC108958C
S11312C0803A29E0920721F460E184E022C1089584
S11312D0803B29E0920721F460E284E01AC108957A
S11312E0803A2AE0920721F460E185E012C1089572
S11312F0803A9B4019F460E186E00BC108950F9396
S11313001F93CF93DF9300D000D0CDB7DEB709830E
S11313101A832B833C834D831E82BE016F5F7F4FF4
S113132022DE2696CDBFDEBFDF91CF911F910F91B4
S11313300895FB018081E82FE695E695E69540E265
S1131340E49FF0011124FA5F877021E030E0A901E5
S113135002C0440F551F8A95E2F746830895FB01A6
S11313608081E82FE695E695E69540E2E49FF0015A
S11313701124FA5F877021E030E0A90102C0440F14
S1131380551F8A95E2F745830895809336229093FA
S113139037220895209136223091372290E8899F90
S11313A0200D311D1124F901E60FF11D408308952C
S11313B0209136223091372290E8899F200D311DEB
S11313C01124F901E60FF11D80810895FF920F9316
S11313D01F93CF93DF93E42FF0E0E80FF11DE13882
S11313E0F1051CF0C0E84C2F481B442309F44AC003
S11313F0D62FD695D695D69570E098E0D99F6019EA
S113140071091124E1E0F0E0DF0102C0AA0FBB1F63
S11314106A95E2F7FA2E213021F098F0223019F182
S113142031C0C42F1FEF180F012F0C0F602F8D2F09
S113143039DB4F2D482B602F8D2F15DAC150A1F7C2
S113144021C0C42F1FEF180FFA2EF094012F0C0F98
S1131450602F8D2F27DB4F2D4823602F8D2F03DA2C
S1131460C150A1F70FC0C42F1FEF180F012F0C0F8D
S1131470602F8D2F17DB4F2D4827602F8D2FF3D929
S1131480C150A1F7DF91CF911F910F91FF90089563
S1131490FF920F931F93CF93DF93222369F0F42ECF
S11314A0182FC22FDFEFD60F6D2F6C0F202F4F2D6B
S11314B0812F8CDFC150C1F7DF91CF911F910F9124
S11314C0FF9008958FEF8093700080937100809354
S11314D072008093730080937400809375008093EE
S11314E076009FB7F894E0E5F0E080818260808325
S11314F09FBF818181FFFDCF61E080E490E09BD0BC
S11315009FB7F894E0E5F0E080818E7F80839FBFF1
S113151008959FB7F894E82FF0E0E059FF4F6095E5
S11315208081682360839FBF0895AF92BF92CF925A
S1131530DF92EF92FF920F931F93CF93DF93C82F05
S1131540E62EB42E690100E0F901248143816B2D5C
S11315508E2D9EDFF6018081811139C08381282F71
S1131560269526952695877009F02F5FF601A480AD
S11315708C2F90E03581831B91092A9D90011124C1
S1131580829FA001839F500D929F500D11240181D1
S11315901281040F151FF601F380FF20A1F0D0E0A3
S11315A0C0E08E2D8C0F9C2F977021F4F801D491FC
S11315B00F5F1F4FDD231CF441E06B2D3DDADD0F7F
S11315C0CF5FFC12EECFB394AA94A110E4CFDF91C5
S11315D0CF911F910F91FF90EF90DF90CF90BF902C
S11315E0AF900895DF92EF92FF920F931F93CF93E2
S11315F0DF93D62E042F7901EC01162F89918A30BE
S113160031F4F70184818F5F080F1D2D09C08D30DF
S113161039F09701402F612F88DFF7018381180F7C
S113162088818111EBCFDF91CF911F910F91FF90B2
S1131630EF90DF9008951BBEFC0128ED24BF60836A
S11316400895CF93DF93FC0120E030E0C62FD0E073
S1131650DE01022E02C0B595A7950A94E2F7A0FD1B
S1131660508B2F5F3F4F31962830310589F740FF6B
S11316700AC041FF03C0FC01658302C0FC0166830C
S1131680FC01618302C0FC016283DF91CF91089564
S113169043E050E061E080EE97E0D3DF43E050E0C8
S11316A062E080EE97E0CDDF43E050E060E180E669
S11316B096E0C7DF41E050E460E280E696E0C1DFF7
S11316C040E05BE160E280E896E0BBDF40E05BE1A4
S11316D062E080EA96E0B5DF40E05BE164E080EA46
S11316E096E0AFDF43E050E062E080E696E0A9DFF9
S11316F043E050E068E080E696E0A3DF43E050E09A
S113170068E080EA96E09DDF43E050E061E080E637
S113171096E097DF43E050E068E080E096E091DFF8
S113172041E050E060E180E896E08BDF43E050E088
S113173062E080E696E085DF43E050E068E080E622
S113174096E07FDF40E050E064E080E696E079DFF9
S113175043E050E060E180EA96E073DF40E050E06F
S113176061E080E096E06DDF40E050E064E080E01E
S113177096E067DF40E050E062E080E296E061DFFF
S113178043E050E068E080E496E05BDF40E050E056
S113179064E080E496E055DF43E050E068E080E6F2
S11317A096E04FDF40E050E064E080E696E049DFF9
S11317B043E050E068E080E896E043DF40E050E03A
S11317C064E080E896E03DCF089561507109810995
S11317D09109D9F708951092A7088CE08093A60880
S11317E01092A30883E08093A50888E18093A4085D
S11317F00895CF93DF93FC016081662341F0EC01EF
S1131800219680EA98E050D969916111FACFDF916D
S1131810CF910895CF93DF93C8E3D2E280EA98E0B2
S11318204BD98A3011F08993F9CF68E372E2809141
S113183010209091112092D0892B21F481E0809383
S1131840250610C068E372E280910E2090910F206B
S113185085D0892B21F481E08093250603C081E0A3
S113186080932606DF91CF91089512DF2BDEA2D854
S113187080E18093850688E0809345068093410645
S113188084E08093460680934206A5DF67E070E219
S113189080EA98E026DA81E080932106C0EAD6E067
S11318A000E616E06894EE24E5F86894FF24F4F862
S11318B0888581FD0AC0888582FF07C0F801F68209
S11318C0E58282E190E295DF19C0888582FD0AC035
S11318D0888581FF07C0F801E682F58289E190E2FC
S11318E088DF0CC0888581FF09C0888582FF06C017
S11318F0F801E582F58281E290E27BDF8BDF20E074
S113190030E240E060E088E392E26CDE6AEA71E192
S113191084E090E05ADFCCCFA1E21A2EAA1BBB1BB5
S1131920FD010DC0AA1FBB1FEE1FFF1FA217B307A7
S1131930E407F50720F0A21BB30BE40BF50B661FBD
S1131940771F881F991F1A9469F760957095809581
S113195090959B01AC01BD01CF010895FB01DC0111
S11319608D91019080190110D9F3990B0895F89481
S1051970FFCFA3
S113197200FC010607207D802500000300002820CA
S11319822F2061746173200A006261776168200A02
S1131992006469616D200A006261776168200061F8
S10919A2746173200000D3
S9030000FC
