:1000000007C1000026C1000024C1000022C1000079
:1000100020C100001EC100001CC100001AC1000068
:1000200018C1000016C1000014C1000012C1000078
:1000300010C100000EC100000C94FB0A0AC10000B0
:1000400008C1000006C1000004C1000002C1000098
:1000500000C10000FEC00000FCC00000FAC00000AB
:10006000F8C00000F6C00000F4C00000F2C00000BC
:10007000F0C00000EEC00000ECC00000EAC00000CC
:10008000E8C00000E6C00000E4C00000E2C00000DC
:10009000E0C00000DEC00000DCC00000DAC00000EC
:1000A000D8C00000D6C00000D4C00000D2C00000FC
:1000B000D0C00000CEC00000CCC00000CAC000000C
:1000C000C8C00000C6C00000C4C00000C2C000001C
:1000D000C0C00000BEC00000BCC00000BAC000002C
:1000E000B8C00000B6C00000B4C00000B2C000003C
:1000F000B0C00000AEC00000ACC00000AAC000004C
:10010000A8C00000A6C00000A4C00000A2C000005B
:10011000A0C000009EC000009CC000009AC000006B
:1001200098C0000096C0000094C0000092C000007B
:1001300090C000008EC000008CC000008AC000008B
:1001400088C0000086C0000084C0000082C000009B
:1001500080C000007EC000007CC000007AC00000AB
:1001600078C0000076C0000074C0000072C00000BB
:1001700070C000006EC000006CC000006AC00000CB
:1001800068C0000066C0000064C0000062C00000DB
:1001900060C000005EC000005CC000005AC00000EB
:1001A00058C0000056C0000054C0000052C00000FB
:1001B00050C000004EC000004CC000004AC000000B
:1001C00048C0000046C0000044C0000042C000001B
:1001D00040C000003EC000003CC000003AC000002B
:1001E00038C0000036C0000034C0000032C000003B
:1001F00030C000002EC000002CC00000FE13FE1313
:10020000FE13341424143114FE13FE133414241476
:1002100011241FBECFEFCDBFDFE5DEBF00E00CBF76
:1002200010E2A0E0B0E2EAE9FCE200E00BBF02C0AD
:1002300007900D92A433B107D9F722E2A4E3B0E20C
:1002400001C01D92A23BB207E1F70E9495140C94E5
:100250004B16D6CE6150710981099109D9F70895DD
:10026000BF92CF92DF92EF92FF920F931F93CF93A3
:10027000DF931F92CDB7DEB700E016E06894FF244D
:10028000F3F8F801F68265E370E080E090E0E2DFE9
:10029000F801F58265E370E080E090E0DBDF0F2E8F
:1002A000FBE2BF2EF02DB98280EA99E081D6C12C05
:1002B000D12C760100E412E42FE030E043E0BE01EF
:1002C0006F5F7F4F80EA99E0A2D600E616E0FF2438
:1002D000F394F801F682B982BE016F5F7F4F80EA26
:1002E00099E0AFD6F801F682E0EAF9E0818185FF76
:1002F000FDCF80EA8093A009E0EAF9E0818186FFE2
:10030000FDCFE0EAF9E080E481838081BE016F5F88
:100310007F4F80EA99E0ABD68BE28983BE016F5FA5
:100320007F4F80EA99E08DD681E080936606E0EA0F
:10033000F9E0818185FFFDCF86EA8093A009E0EA9C
:10034000F9E0818186FFFDCFE0EAF9E080E4818376
:100350008081BE016F5F7F4F80EA99E088D68BE293
:100360008983BE016F5F7F4F80EA99E06AD681E0A2
:1003700080936606E0EAF9E0818185FFFDCF88EC95
:100380008093A009E0EAF9E0818186FFFDCFE0EAF1
:10039000F9E080E481838081BE016F5F7F4F80EA56
:1003A00099E065D68BE28983BE016F5F7F4F80EA5B
:1003B00099E047D681E080936606E0EAF9E0818122
:1003C00085FFFDCF82EA8093A009E0EAF9E0818110
:1003D00086FFFDCFE0EAF9E080E481838081BE0101
:1003E0006F5F7F4F80EA99E042D68BE28983BE013E
:1003F0006F5F7F4F80EA99E024D681E080936606A4
:10040000E0EAF9E0818185FFFDCF8FE28093A009CA
:10041000E0EAF9E0818186FFFDCFE0EAF9E080E4DF
:1004200081838081BE016F5F7F4F80EA99E01FD694
:100430008BE28983BE016F5F7F4F80EA99E001D62E
:1004400081E080936606E0EAF9E0818185FFFDCFD7
:1004500088EF8093A009E0EAF9E0818186FFFDCF73
:10046000E0EAF9E080E481838081BE016F5F7F4F25
:1004700080EA99E0FCD58BE28983BE016F5F7F4FF4
:1004800080EA99E0DED581E080936606E0EAF9E053
:10049000818185FFFDCF1092A009E0EAF9E081811A
:1004A00086FFFDCFE0EAF9E080E481838081BE0130
:1004B0006F5F7F4F80EA99E0DAD58BE28983BE01D6
:1004C0006F5F7F4F80EA99E0BCD581E0809366063C
:1004D000E0EAF9E0818185FFFDCF81E28093A00908
:1004E000E0EAF9E0818186FFFDCFE0EAF9E080E40F
:1004F00081838081BE016F5F7F4F80EA99E0B7D52D
:100500008BE28983BE016F5F7F4F80EA99E099D5C6
:1005100081E080936606E0EAF9E0818185FFFDCF06
:1005200081E88093A009E0EAF9E0818186FFFDCFB0
:10053000E0EAF9E080E481838081BE016F5F7F4F54
:1005400080EA99E094D58BE28983BE016F5F7F4F8B
:1005500080EA99E076D581E080936606E0EAF9E0EA
:10056000818185FFFDCF81E28093A009E0EAF9E077
:10057000818186FFFDCFE0EAF9E080E4818380811C
:10058000BE016F5F7F4F80EA99E071D58BE289836E
:10059000BE016F5F7F4F80EA99E053D581E0809381
:1005A0006606E0EAF9E0818185FFFDCF8FEA80935E
:1005B000A009E0EAF9E0818186FFFDCFE0EAF9E0F9
:1005C00080E481838081BE016F5F7F4F80EA99E084
:1005D0004ED50F90DF91CF911F910F91FF90EF902B
:1005E000DF90CF90BF900895FF920F931F93CF930A
:1005F000DF931F92CDB7DEB7082FF62E142F52D5FA
:100600000F70006B8BE28983BE016F5F7F4F80EAC2
:1006100099E017D581E080936606E0EAF9E09181E0
:1006200095FFFDCF0093A009E0EAF9E0818186FF04
:10063000FDCFE0EAF9E080E481838081BE016F5F55
:100640007F4F80EA99E013D50F2D0F7702950F7039
:1006500000618BE28983BE016F5F7F4F80EA99E082
:10066000F0D481E080936606E0EAF9E0818185FFBD
:10067000FDCF0093A009E0EAF9E0818186FFFDCF7C
:10068000E0EAF9E080E481838081BE016F5F7F4F03
:1006900080EA99E0ECD40F2D0F708BE28983BE01C4
:1006A0006F5F7F4F80EA99E0CCD481E0809366064B
:1006B000E0EAF9E0818185FFFDCF0093A009E0EA3F
:1006C000F9E0818186FFFDCFE0EAF9E080E48183F3
:1006D0008081BE016F5F7F4F80EA99E0C8D48BE2D2
:1006E0008983BE016F5F7F4F80EA99E0AAD481E0E1
:1006F00080936506E0EAF9E0818185FFFDCF1093E4
:10070000A009E0EAF9E0818186FFFDCFE0EAF9E0A7
:1007100080E48183808181E080936606BE016F5F03
:100720007F4F80EA99E0A3D40F90DF91CF911F9182
:100730000F91FF9008950F931F93CF93DF931F9214
:10074000CDB7DEB784E390E2A8D48ADD8BE289835B
:10075000BE016F5F7F4F80EA99E073D481E08093A0
:100760006606E0EAF9E0818185FFFDCF80E48093B1
:10077000A009E0EAF9E0818186FFFDCFE0EAF9E037
:1007800080E481838081BE016F5F7F4F80EA99E0C2
:100790006ED400E00AC040E0612F802F25DF1F5F8C
:1007A0001038C9F70F5F043011F010E0F4CF0F904C
:1007B000DF91CF911F910F910895FC01918195FFD9
:1007C000FDCF608380E090E008954F925F926F923A
:1007D0007F928F929F92AF92BF92EF92FF920F9370
:1007E0001F93CF937C014A015B0128013901FC0171
:1007F000848182FF16C0D901C801689412F8B695A9
:10080000A795979587951694D1F7B901A801032E5E
:1008100036E176956795579547953A95D1F7302DFE
:1008200015C0D901C801689413F8B695A795979596
:1008300087951694D1F7B901A801032E37E1769573
:100840006795579547953A95D1F7302D88159905B5
:10085000AA05BB0508F4A6C084169506A606B70629
:1008600008F4A2C0F701848182FD04C0880C991CA1
:10087000AA1CBB1CC301B201A50194010E94F7147C
:100880002F3F31054105510508F490C08FEF90E0EE
:10089000A0E0B0E0C9EF05C0281739074A075B0799
:1008A00058F0880F991FAA1FBB1FCD3F0CF4816021
:1008B000CF5FC73089F74FC0CC230CF04CC0D501B7
:1008C000C401880F991FAA1FBB1F880F991FAA1F59
:1008D000BB1F880F991FAA1FBB1F481A590A6A0A13
:1008E0007B0ACE3FF4F48DEF9FEF8C1B9109C7FD7F
:1008F000939504C0440C551C661C771C8A95D2F74E
:10090000D501C401B695A79597958795BC01CD01F2
:10091000640D751D861D971DA50194010E94F71495
:1009200037C083E08C0FA501940104C0220F331F50
:10093000441F551F8A95D2F7DA01C901B695A795CC
:1009400097958795BC01CD01640D751D861D971D7A
:100950000E94F7141DC083E08C0FA501940104C010
:10096000220F331F441F551F8A95D2F7DA01C901A0
:10097000B695A79597958795BC01CD01640D751D1A
:10098000861D971D0E94F714215031094109510914
:10099000832F8F70C295C07FC82BF701C783268332
:1009A00081E018C080E016C080E014C0D501C40109
:1009B000880F991FAA1FBB1F880F991FAA1FBB1F53
:1009C000880F991FAA1FBB1F481A590A6A0A7B0A77
:1009D000C9EF89CFCF911F910F91FF90EF90BF90FA
:1009E000AF909F908F907F906F905F904F90089501
:1009F0000F931F93CF93DF93EC018B01009709F4C2
:100A0000E6C0803C910521F460E180E080D3DFC046
:100A1000C03881E0D80721F462E080E078D3D7C005
:100A2000C115E1E0DE0721F461E080E070D3CFC0C2
:100A3000C038F3E0DF0721F461E081E068D3C7C08C
:100A4000C03983E0D80721F461E082E060D3BFC001
:100A5000C115E2E0DE0721F462E081E058D3B7C0BF
:100A6000C034F2E0DF0721F462E082E050D3AFC08F
:100A7000C03283E0D80721F464E082E048D3A7C005
:100A8000C115E8E0DE0721F461E083E040D39FC0B8
:100A9000C115F9E0DF0721F461E084E038D397C0A5
:100AA000C1158AE0D80721F461E085E030D38FC01A
:100AB000C115EBE0DE0721F461E086E028D387C0B2
:100AC000C034F8E0DF0721F462E083E020D37FC088
:100AD000C03489E0D80721F462E084E018D377C0FD
:100AE000C034EAE0DE0721F462E085E010D36FC095
:100AF000C039F8E0DF0721F464E083E008D367C081
:100B0000C03989E0D80721F464E084E000D35FC0F5
:100B1000C039EAE0DE0721F464E085E0F8D257C08E
:100B2000C039FBE0DF0721F464E086E0F0D24FC07B
:100B3000C03C88E0D80721F468E083E0E8D247C0F1
:100B4000C03CE9E0DE0721F468E084E0E0D23FC089
:100B5000C03AF8E0DF0721F460E183E0D8D237C083
:100B6000C03A89E0D80721F460E184E0D0D22FC0F8
:100B7000C03AEAE0DE0721F460E185E0C8D227C090
:100B8000C03AFBE0DF0721F460E186E0C0D21FC07D
:100B9000C03B88E0D80721F460E283E0B8D217C0F8
:100BA000C03BE9E0DE0721F460E284E0B0D20FC090
:100BB000C038F4E0DF0721F460E483E0A8D207C086
:100BC000C03A84E0D80719F460E485E0A0D28D81B2
:100BD0008F738D83F80195818481892B9681911182
:100BE00098E0892B8D83F801408151816281738166
:100BF00000E018E428EE31E0CE01E7DD9C8198604A
:100C00009C839C8190619C83DF91CF911F910F9178
:100C10000895CF92DF92EF92FF920F931F93CF939D
:100C2000DF93EC01D901C801B695A79597958795F3
:100C3000481759076A077B0778F46A017B01CC0CD7
:100C4000DD1CEE1CFF1CC901B801A70196010E9422
:100C5000F7142150310902C020E030E0832F8F705B
:100C60008F832E83DF91CF911F910F91FF90EF9093
:100C7000DF90CF900895EF92FF920F931F93CF9341
:100C8000DF93EC017B01009709F47BC1803C910567
:100C900021F460E180E03BD274C18038914021F4BE
:100CA00062E080E034D26DC1C11581E0D80721F443
:100CB00061E080E02CD265C1C038E3E0DE0721F4BA
:100CC00061E081E024D25DC1C039F3E0DF0721F4A7
:100CD00061E082E01CD255C1C11532E0D30721F496
:100CE00062E081E014D24DC1C03482E0D80721F423
:100CF00062E082E00CD245C1C032E3E0DE0721F4BD
:100D000064E082E004D23DC1C115F8E0DF0721F4C0
:100D100061E083E0FCD135C1C11539E0D30721F48E
:100D200061E084E0F4D12DC1C1158AE0D80721F437
:100D300061E085E0ECD125C1C115EBE0DE0721F4CF
:100D400061E086E0E4D11DC1C034F8E0DF0721F4A2
:100D500062E083E0DCD115C1C03439E0D30721F46F
:100D600062E084E0D4D10DC1C0348AE0D80721F418
:100D700062E085E0CCD105C1C039E8E0DE0721F4AE
:100D800064E083E0C4D1FDC0C039F9E0DF0721F49D
:100D900064E084E0BCD1F5C0C0393AE0D30721F467
:100DA00064E085E0B4D1EDC0C0398BE0D80721F410
:100DB00064E086E0ACD1E5C0C03CE8E0DE0721F4A9
:100DC00068E083E0A4D1DDC0C03CF9E0DF0721F496
:100DD00068E084E09CD1D5C0C03A38E0D30761F424
:100DE00060E183E094D1E0EAF8E084818F7E84833F
:100DF000F7012481225043C0C03AF9E0DF0721F413
:100E000060E184E084D1BDC0C03A3AE0D30721F468
:100E100060E185E07CD1B5C0C03A8BE0D80721F411
:100E200060E186E074D1ADC0C03BE8E0DE0721F4AC
:100E300060E283E06CD1A5C0C03BF9E0DF0721F49C
:100E400060E284E064D19DC0C03834E0D30721F46F
:100E500060E483E05CD195C0C03A84E0D80721F417
:100E600060E485E054D18DC08C818F7E8C83FB0142
:100E700024812250CE01C03AF8E0DF0731F480919E
:100E80004E0684FD86C011E185C0803B38E09307A3
:100E900079F0803AE9E09E0731F430916E0634FD36
:100EA0007CC019E110C0803BF9E09F07A9F001C0A8
:100EB00015E1803A3AE0930731F480918E0684FD83
:100EC0006EC011E20CC0803A9B4049F48091AE069E
:100ED00084FD04C019E203C01DE101C01DE2E12F41
:100EE000E695E695E69530E2E39FF0011124FA5F7E
:100EF000177081E090E0012E02C0880F991F0A94BC
:100F0000E2F78183223010F040E001C040E4DF01CD
:100F10005096A10FB11D3FB7F8942C9127702C93D8
:100F20009C91942B9C933FBF85838D81806C8D8396
:100F3000F70184818D7F813021F48D8182608D83E2
:100F400003C08D818D7F8D83F7018581882321F0FA
:100F50008D8184608D8303C08D818B7F8D83F701AC
:100F6000408151816281738100E018E428EE31E014
:100F7000CE014FDE8C8188608C838C8180618C8374
:100F800010C08C818F7E8C83F70124812250CE018A
:100F90007CCF15E180EA98E086CF1DE194CF15E281
:100FA0009ECFDF91CF911F910F91FF90EF90089509
:100FB000803A28E0920721F460E183E0A8C0089518
:100FC000803B28E0920721F460E283E0A0C008950E
:100FD000803A29E0920721F460E184E098C0089506
:100FE000803B29E0920721F460E284E090C00895FC
:100FF000803A2AE0920721F460E185E088C00895F4
:10100000803A9B4019F460E186E081C008950F9317
:101010001F93CF93DF9300D000D0CDB7DEB7098305
:101020001A832B833C834D831E82BE016F5F7F4FEB
:1010300022DE2696CDBFDEBFDF91CF911F910F91AB
:101040000895FB018081E82FE695E695E69540E25C
:10105000E49FF0011124FA5F877021E030E0A901DC
:1010600002C0440F551F8A95E2F746830895FB019D
:101070008081E82FE695E695E69540E2E49FF00151
:101080001124FA5F877021E030E0A90102C0440F0B
:10109000551F8A95E2F745830895809334229093F3
:1010A00035220895209134223091352290E8899F8D
:1010B000200D311D1124F901E60FF11D4083089523
:1010C0008FEF809370008093710080937200809303
:1010D00073008093740080937500809376009FB7AF
:1010E000F894E0E5F0E08081826080839FBF818199
:1010F00081FFFDCF61E080E490E015D09FB7F894C8
:10110000E0E5F0E080818E7F80839FBF08959FB7E8
:10111000F894E82FF0E0E059FF4F60958081682354
:1011200060839FBF08951BBEFC0128ED24BF608330
:101130000895CF93DF93FC0120E030E0C62FD0E08C
:10114000DE01022E02C0B595A7950A94E2F7A0FD34
:10115000508B2F5F3F4F31962830310589F740FF84
:101160000AC041FF03C0FC01658302C0FC01668325
:10117000FC01618302C0FC016283DF91CF9108957D
:1011800043E050E061E080EE97E0D3DF43E050E0E1
:1011900062E080EE97E0CDDF43E050E060E180E682
:1011A00096E0C7DF41E050E460E280E696E0C1DF10
:1011B00040E05BE160E280E896E0BBDF40E05BE1BD
:1011C00062E080EA96E0B5DF40E05BE164E080EA5F
:1011D00096E0AFDF43E050E062E080E696E0A9DF12
:1011E00043E050E068E080E696E0A3DF43E050E0B3
:1011F00068E080EA96E09DDF43E050E061E080E651
:1012000096E097DF43E050E068E080E096E091DF11
:1012100041E050E060E180E896E08BDF43E050E0A1
:1012200062E080E696E085DF43E050E068E080E63B
:1012300096E07FDF40E050E064E080E696E079DF12
:1012400043E050E060E180EA96E073DF40E050E088
:1012500061E080E096E06DDF40E050E064E080E037
:1012600096E067DF40E050E062E080E296E061DF18
:1012700043E050E068E080E496E05BDF40E050E06F
:1012800064E080E496E055DF43E050E068E080E60B
:1012900096E04FDF40E050E064E080E696E049DF12
:1012A00043E050E068E080E896E043DF40E050E053
:1012B00064E080E896E03DCF0895FC0103968183C9
:1012C00092832FEF3FEF2383348385839683878335
:1012D000908710820895FC01108611860895CF939F
:1012E000DF939C01FB01DC011196CD91DC911297FB
:1012F000C283D3838C819D81848395838C819D81DE
:10130000DC0112966D937C9313976C837D83208709
:101310003187F90180818F5F8083DF91CF910895BC
:10132000CF93DF93EB01488159814F3F2FEF520755
:1013300021F4FC01A781B0850DC0DC01139601C02A
:10134000DF011296ED91FC911397208131814217B4
:101350005307B0F71296ED91FC911397EA83FB8344
:10136000C483D583AC83BD831296CD93DC9313974E
:1013700088879987FC0120812F5F2083DF91CF919F
:101380000895CF93DF93FC01A085B185C281D381FD
:10139000848195818C839D83C481D5818281938151
:1013A0008A839B8311968D919C911297E817F90778
:1013B00031F48481958111968D939C9312971086B8
:1013C00011868C9181508C93DF91CF9108950F936A
:1013D0001F938B0171E1FC017083319762E260839E
:1013E000319723E32083012E000C220B330B31971E
:1013F0000083319710833197208331971082319782
:1014000020E8208331971082319722E020833197A2
:1014100023E02083319724E02083319725E0208347
:10142000319726E02083319727E02083319728E009
:101430002083319729E02083319720E12083319761
:101440007083319722E12083319723E12083319704
:1014500024E12083319725E12083319726E1208301
:10146000319727E12083319728E12083319729E1C3
:101470002083319720E22083319721E22083319726
:101480006083319723E220833197408331975083E3
:10149000319726E22083319727E22083319728E293
:1014A0002083319729E22083319720E320833197ED
:1014B00021E3208387971F910F910895F894E0E727
:1014C000F0E083818A7F8383E0E0F8E080E09AEFB8
:1014D00086A397A391E09683A0EAB0E012968C9140
:1014E0001297816012968C9390837894A0918E22AB
:1014F000B0918F220D900DBE0D900EBEFF91EF9119
:10150000DF91CF91BF91AF919F918F917F916F911B
:101510005F914F913F912F911F910F91FF90EF900D
:10152000DF90CF90BF90AF909F908F907F906F9003
:101530005F904F903F902F901F900F900FBE0F9095
:10154000089581E008950F920FB6F8940F921F92BC
:1015500011242F923F924F925F926F927F928F92BF
:101560009F92AF92BF92CF92DF92EF92FF920F9332
:101570001F932F933F934F935F936F937F938F931B
:101580009F93AF93BF93CF93DF93EF93FF93A0917C
:101590008E22B0918F220DB60D920EB60D920ED600
:1015A000A0918E22B0918F220D900DBE0D900EBE97
:1015B000FF91EF91DF91CF91BF91AF919F918F916B
:1015C0007F916F915F914F913F912F911F910F915B
:1015D000FF90EF90DF90CF90BF90AF909F908F9053
:1015E0007F906F905F904F903F902F901F900F9043
:1015F0000FBE0F9008950F920FB6F8940F921F929E
:1016000011242F923F924F925F926F927F928F920E
:101610009F92AF92BF92CF92DF92EF92FF920F9381
:101620001F932F933F934F935F936F937F938F936A
:101630009F93AF93BF93CF93DF93EF93FF93A091CB
:101640008E22B0918F220DB60D920EB60D924BD414
:101650008111B4D5A0918E22B0918F220D900DBE34
:101660000D900EBEFF91EF91DF91CF91BF91AF91A1
:101670009F918F917F916F915F914F913F912F91AA
:101680001F910F91FF90EF90DF90CF90BF90AF90A0
:101690009F908F907F906F905F904F903F902F9092
:1016A0001F900F900FBE0F901895CF93DF93EC0112
:1016B0000AD4CE010E942115EC01E8D4CE01DF91BD
:1016C000CF910895CF93DF93009731F0EC01FBD3D6
:1016D000CE010E94B915DAD4DF91CF9108951F93FE
:1016E000CF93DF93EC01142F4C8D4423D9F11111CA
:1016F00016C050E08C819D810E9442162C8D8C81F9
:101700009D81820F911D8C839D832A813B8182174D
:10171000930740F1888199818C839D8323C050E099
:101720008E819F810E9442168C8D90E091958195CB
:1017300091092E813F81280F391F2E833F834881D5
:1017400059812417350730F42A813B81820F931F7A
:101750008E839F83123031F48A8D882319F08A8D0D
:1017600081508A8F8A8D8F5F8A8F80E0DF91CF9141
:101770001F910895FC01448D4423A9F050E0268177
:101780003781240F351F2683378382819381281761
:10179000390720F08081918186839783CB01668110
:1017A00077810C94421608950F931F93CF93DF9384
:1017B000EC010FB6F8940F928E8D1816ACF489894F
:1017C000811105C011C08989811104C00DC08E012D
:1017D0000F5E1F4FC80193D5811113D68E8D815096
:1017E0008E8F8E8D18167CF38FEF8E8F0F900FBE1D
:1017F0000FB6F8940F928D8D1816ACF48885811170
:1018000005C011C08885811104C00DC08E01085F1C
:101810001F4FC80174D58111F4D58D8D81508D8FE6
:101820008D8D18167CF38FEF8D8F0F900FBEDF918B
:10183000CF911F910F910895CF93DF93EC010FB6D5
:10184000F8940F92488159812C8D30E07B8D729FE6
:10185000C001739F900D1124FA01E80FF91FEA836C
:10186000FB831A8E4C835D83821B930B840F951F21
:101870008E839F838FEF8D8F8E8F61110AC0888535
:10188000882369F0CE0108963AD5813041F45BDEB9
:1018900006C0CE01089611DDCE0141960EDD0F90F7
:1018A0000FBE81E0DF91CF9108950F931F93CF93E7
:1018B000DF93082F162F6623A9F0869FC0011124FD
:1018C0008096F3DEEC01009721F412C0C883D9831F
:1018D00003C04F96888399830B8F1C8F61E0CE01E4
:1018E000ABDF06C08FE190E0E0DEEC01892B71F701
:1018F000CE01DF91CF911F910F910895AF92BF92CA
:10190000CF92DF92EF92FF920F931F93CF93DF93CB
:10191000CDB7DEB72597CDBFDEBF8C016B014C8301
:101920005D83A22EB12C7C0188E0E80EF11C0FB67D
:10193000F8940F92F801928D838D981718F0F2E0C9
:10194000AF1215C04A2DB601C801C9DEF801918950
:10195000992339F0C8014196D2D4813021F4F3DDC6
:1019600002C08111F0DD0F900FBE81E046C08C8176
:101970009D81892B21F40F900FBE80E03EC0B110F5
:1019800005C0CE01019601D5BB24B3940F900FBEC4
:101990009AD20FB6F8940F92F801858D8F3F09F413
:1019A000158EF801868D8F3F09F4168E0F900FBEAD
:1019B000BE016C5F7F4FCE010196F2D4811119C038
:1019C0000FB6F8940F92F801928D0F900FBE838D91
:1019D00098130BC06C817D81C7015DD4C801E4DE22
:1019E00055D38111A4CFAFDDA2CFC801DDDE4ED328
:1019F0009ECFC801D9DE4AD380E02596CDBFDEBF99
:101A0000DF91CF911F910F91FF90EF90DF90CF90DA
:101A1000BF90AF9008950F931F93CF93DF93FA0178
:101A2000DC015A965C915A975B963C91531710F0E3
:101A30002230D9F4422F8F01EC0151DE8E8D8F3F81
:101A400079F48989882399F0CE01419658D4882366
:101A500081F00115110579F081E0F80180830CC057
:101A60008E8D8F5F8E8F81E007C080E005C081E0A2
:101A700003C081E001C081E0DF91CF911F910F9100
:101A80000895AF92BF92CF92DF92EF92FF920F93A1
:101A90001F93CF93DF93CDB7DEB72597CDBFDEBFC2
:101AA0008C016B014C835D83A22EB12C7C0181E102
:101AB000E80EF11C0FB6F8940F92F801828D88237E
:101AC00021F1E680F780B601C80154DEA1100EC0F6
:101AD000F801828D8150828F8085882391F0C80122
:101AE00008960DD4813069F42EDD0BC0F801E68232
:101AF000F7828189882329F0C801419600D4811199
:101B000022DD0F900FBE81E045C08C819D81892B25
:101B100021F40F900FBE80E03DC0B11005C0CE0192
:101B2000019633D4BB24B3940F900FBECCD10FB623
:101B3000F8940F92F801858D8F3F09F4158EF80106
:101B4000868D8F3F09F4168E0F900FBEBE016C5F1D
:101B50007F4FCE01019624D4811118C00FB6F8949E
:101B60000F92F801828D0F900FBE81110BC06C8116
:101B70007D81C70190D3C80117DE88D281119ACF29
:101B8000E2DC98CFC80110DE81D294CFC8010CDE10
:101B90007DD280E02596CDBFDEBFDF91CF911F9132
:101BA0000F91FF90EF90DF90CF90BF90AF9008958E
:101BB000CF93DF93EC010FB6F8940F928D8D8F3F8A
:101BC00009F41D8E8E8D8F3F09F41E8E0F900FBE6F
:101BD0008A8D811103C0CE01419677D3CE01E4DD19
:101BE000DF91CF910895C1E6D2E288818230F0F38F
:101BF000AADCFBCFCF93DF93EC01E0918E22F09132
:101C00008F228283938380913F2290914022C81734
:101C1000D90760F460918E2270918F2280914B22BF
:101C200090914C226E5F7F4F7BDB16C060918E22BD
:101C300070918F2280914D2290914E226E5F7F4F46
:101C40006FDB8091372290913822C817D90720F492
:101C5000C0933722D0933822DF91CF9108954F92CD
:101C60005F926F927F928F929F92AF92BF92CF922C
:101C7000DF92EF92FF920F931F93CF93DF934C016C
:101C8000EB015A012901C114D10431F4CA010DDD5F
:101C90006C01892B09F4D2C086E290E006DD3C019C
:101CA000009779F0FC01C78AD08EF1E0AF1AB10835
:101CB000CA0CDB1C8881F301818F8881811104C0EB
:101CC00013C0C601FFDCBAC0D3015A96FE0131969B
:101CD0009E01285F3F4FEF0181918D93888188237A
:101CE00019F02E173F07B9F7F30110A2102F053096
:101CF00008F014E0F301168BE3012296CE01EBDA33
:101D0000C3010C96E8DAF3016086718685E090E005
:101D1000811B910984879587628A738A11A212A216
:101D200013A214A215A2A201B401C60150DBF30153
:101D300080839183E114F10419F0F70160827182CC
:101D40000FB6F8940F92809141228F5F80934122C9
:101D500080918E2290918F22892B91F560928E2214
:101D600070928F22809141228130C9F50F2EF1E6C9
:101D7000EF2EF2E2FF2EF02D0F2EFEE8CF2EF2E234
:101D8000DF2EF02DC70199DAF9E0EF0EF11CEC140B
:101D9000FD04C1F788E592E290DA8FE492E28DDAF1
:101DA00082E492E28ADA88E592E280934D2290936F
:101DB0004E228FE492E280934B2290934C220FC0EC
:101DC00080913D2281110BC0E0918E22F0918F22F3
:101DD0008689081720F060928E2270928F2280915F
:101DE00039228F5F80933922F301868990913E22B8
:101DF000981710F480933E2290E09C01220F331F2D
:101E0000220F331F220F331F820F931FBE018F59E2
:101E10009D4D65DA0F900FBE80913D22882351F0D1
:101E2000E0918E22F0918F228689801728F48BDB37
:101E300081E005C081E003C081E001C08FEFDF9148
:101E4000CF911F910F91FF90EF90DF90CF90BF90B7
:101E5000AF909F908F907F906F905F904F9008957C
:101E6000AF92BF92CF92DF92EF92FF920F93A12C8D
:101E7000B12CC12CD12CE12CF12C00E020E030E081
:101E800045E550E06DE070E283EF9DE0E8DE8130F3
:101E900091F420D3813079F4F8948FEF9FEF809301
:101EA00037229093382281E080933D2210923F2286
:101EB0001092402203DB0F91FF90EF90DF90CF90C4
:101EC000BF90AF900895809136228F5F8093362225
:101ED00008950FB6F8940F9280913F22909140227E
:101EE0000F900FBE0895DF92EF92FF920F931F9312
:101EF000CF93DF93809136228111B3C080913F222E
:101F000090914022019680933F2290934022E0904E
:101F10003F22F0904022E114F10499F580914D2286
:101F200090914E2220914B2230914C2220934D22B1
:101F300030934E2280934B2290934C2280913A22F0
:101F40008F5F80933A22E0914D22F0914E22808162
:101F5000811107C08FEF9FEF809337229093382233
:101F600010C0E0914D22F0914E220580F681E02DC7
:101F70000680F781E02D82819381809337229093B0
:101F800038228091372290913822E816F90610F411
:101F9000D12C4FC0D12CE0914D22F0914E22808166
:101FA000811107C08FEF9FEF8093372290933822E3
:101FB00040C0E0914D22F0914E220580F681E02D47
:101FC000C681D7818A819B81E816F90628F480931F
:101FD0003722909338222DC08E010E5F1F4FC8010B
:101FE000D0D98C899D89892B19F0CE010C96C9D93D
:101FF0008E8990913E22981710F480933E2290E0B3
:102000009C01220F331F220F331F220F331F820F19
:10201000931FB8018F599D4D62D9E0918E22F091A6
:102020008F229E898689981708F4B5CFDD24D39432
:10203000B2CFE0918E22F0918F22868990E0FC0150
:10204000EE0FFF1FEE0FFF1FEE0FFF1F8E0F9F1FE4
:10205000FC01EF59FD4D8081823048F0DD24D3949E
:1020600006C080913C228F5F80933C22D12C8091CE
:102070003B22882311F0DD24D3948D2DDF91CF9165
:102080001F910F91FF90EF90DF900895DF92EF92F4
:10209000FF920F931F93CF93DF930FB6F8940F9295
:1020A0008091362281508093362280913622811190
:1020B0005DC080914122811130C05BC0D70115966F
:1020C000ED91FC911697C681D781CE010C9659D916
:1020D0008E010E5F1F4FC80154D98E8990913E2208
:1020E000981710F480933E2290E09C01220F331F3A
:1020F000220F331F220F331F820F931FB8018F59F6
:102100009D4DEDD8E0918E22F0918F229E89868997
:10211000981758F0D0923B2208C00F2EF2E4EF2E11
:10212000F2E2FF2EF02DDD24D394F701808181119E
:10213000C5CF80913C22882391F080913C22882356
:1021400071F0C1E0D0DE8111C0933B2280913C222E
:10215000815080933C2280913C228111F3CF809169
:102160003B22813029F4EFD981E003C080E001C037
:1021700080E00F900FBEDF91CF911F910F91FF90E4
:10218000EF90DF900895CF93DF93EC01892B91F0CE
:102190009ADE80913F2290914022C80FD91F8091F2
:1021A0008E2290918F220296ECD8CE0123DD6EDF35
:1021B000811101C0C8D9DF91CF9108958091362255
:1021C000882321F081E080933B22089510923B22E6
:1021D00080913E2290E0FC01EE0FFF1FEE0FFF1FEB
:1021E000EE0FFF1F8E0F9F1FFC01EF59FD4D8081E9
:1021F000811117C080913E22815080933E228091B0
:102200003E2290E0FC01EE0FFF1FEE0FFF1FEE0FCE
:10221000FF1F8E0F9F1FFC01EF59FD4D808188230A
:1022200049F380913E2290E09C01220F331F220F40
:10223000331F220F331F280F391FD901AF59BD4D4E
:102240001196ED91FC9112970280F381E02D119689
:10225000ED93FC9312972C593D4DE217F30729F4A7
:1022600022813381FD0121833283FC01EE0FFF1FA8
:10227000EE0FFF1FEE0FFF1F8E0F9F1FFC01EF5988
:10228000FD4D0180F281E02D8681978180938E2221
:1022900090938F220895CF93DF93EB0160918E226C
:1022A00070918F22645F7F4F3BD880918E229091F6
:1022B0008F22029666D880913F22909140228C0F07
:1022C0009D1F98DCDF91CF910895CF93DF93EB01B1
:1022D00060918E2270918F22645F7F4F00D8809131
:1022E0008E2290918F2202964CD880913F2290911D
:1022F00040228C0F9D1F7EDCDF91CF9108950F93BC
:102300001F93CF93DF93DC011596ED91FC91169707
:10231000C681D7818E01045F1F4FC80132D88091DA
:10232000362281111BC00A501109C8012AD88E8992
:1023300090913E22981710F480933E2290E09C01E9
:10234000220F331F220F331F220F331F820F931FC1
:10235000B8018F599D4D0E946F0905C0B80182E4F4
:1023600092E20E946F09E0918E22F0918F229E8965
:102370008689891720F481E080933B2201C080E0A8
:10238000DF91CF911F910F91089520913A22FC0186
:10239000208320913F22309140222183328308956F
:1023A000CF93DF93FC010FB6F8940F9220913F2258
:1023B0003091402280913A229081981729F08181B2
:1023C000928128173907A8F4A181B281EB014881D5
:1023D0005981C9018A1B9B0B8417950760F4CF01B3
:1023E000A21BB30B4A0F5B1F48835983CEDF80E0EB
:1023F00003C081E001C081E00F900FBEDF91CF915B
:10240000089581E080933B22089580913D228823A6
:1024100031F080913622882321F080E0089581E018
:10242000089582E00895FC01628373838087918719
:102430004617570790F0421B530B84859585481724
:102440005907E0F4BF016E5F7F4F80919422909115
:1024500095220E94900980E008954217530718F4CE
:102460006217730768F4BF016E5F7F4F80919622F9
:10247000909197220E94900980E0089581E008954C
:1024800081E008950FB6F8940F9280919222909176
:102490009322892BE1F481EA92E20E945D0988E9A6
:1024A00092E20E945D0981EA92E2809396229093E3
:1024B000972288E992E2809394229093952240E0BB
:1024C00065E08AE0F2D980939222909393220F9054
:1024D0000FBE0895AF92BF92CF92DF92EF92FF921C
:1024E0000F93D0DF8091922290919322892B89F0D3
:1024F000A12CB12CC12CD12CE12CF12C03E020E03B
:1025000030E045E550E062E170E288E793E1A7DB67
:1025100001C080E00F91FF90EF90DF90CF90BF90CF
:10252000AF9008958F929F92BF92CF92DF92EF92D9
:10253000FF920F931F93CF93DF9361157105C9F03D
:102540006901B42E7B014C0183E190E0AED8EC012F
:10255000892B89F097DF88829982EC86FD86BE867A
:10256000CF86D88A098B1A8BCE0102960E946B09FE
:1025700002C0C0E0D0E0CE01DF91CF911F910F915A
:10258000FF90EF90DF90CF90BF909F908F90089535
:102590000F931F93CF93DF93CDB7DEB72597CDBFB2
:1025A000DEBFE0919222F0919322309751F1D90150
:1025B00069834A835B838C839D836630D4F425DFF3
:1025C000823059F420E0A801BE016F5F7F4F8091F7
:1025D00092229091932292D915C020E040E050E0E1
:1025E000BE016F5F7F4F809192229091932286D996
:1025F00009C020E0AD01BE016F5F7F4FCF010BDA54
:1026000001C080E02596CDBFDEBFDF91CF911F9145
:102610000F910895AF92BF92CF92DF92EF92FF9207
:102620000F931F93CF93DF936C0153DC7C01809158
:10263000902290919122E816F90608F047C02FC029
:102640000580F681E02DA080B180C681D7818E0102
:102650000E5F1F4FC8010E94C109E989FA89CE01A6
:1026600019958E858130D9F48C859D858A0D9B1DA9
:10267000A816B90660F48A839B83C887D987B801F6
:1026800080919622909197220E94900908C000E0C4
:1026900010E020E030E0A50160E0CE0179DFE091BC
:1026A0009622F091972280818111CACF8091942245
:1026B000909195228093962290939722E093942272
:1026C000F093952281E0F601808302C0F60110822A
:1026D000E0929022F0929122C701DF91CF911F9159
:1026E0000F91FF90EF90DF90CF90BF90AF90089543
:1026F000CF93DF9300D000D0CDB7DEB7CE010196E7
:102700005C01E82EFB2CE0919622F09197228081CB
:10271000882309F4B6C00580F681E02DC080D18001
:10272000D2DBC50177DF8C018981811142C00C1594
:102730001D0580F1ABDCE0919622F0919722058097
:10274000F681E02D86809780C40102960E94C1091F
:10275000D4011E968C911E978130A1F41C966D9128
:102760007C911D976C0D7D1D9601A801C4015BDE57
:10277000813041F400E010E020E030E0A60160E0AC
:10278000C40106DFD4015196ED91FC915297C4012A
:1027900019956AC040E0B601601B710B80919222CE
:1027A0009091932205DA72DC81115EC00E94A30A27
:1027B0005BC06CDC59C0898188230CF455C0CC8087
:1027C000DD80F60182859385892B21F0C601029672
:1027D0000E94C109CE0106961DDFAC018981082E39
:1027E000000C990BAA0BBB0B8A30910508F03CC07A
:1027F000FC018827E250FF4F8F4F1BC12A813B818C
:10280000D6011C966D917C911D97620F731FC601B6
:102810000ADE813049F5D6015196ED91FC9152972F
:10282000C6011995F60186858130F1F44A815B81F4
:1028300084859585480F591F00E010E020E030E0C6
:1028400060E0C601A5DE10C06A817B81D6011C96BE
:102850006D937C931D97640F751F9A01C601E3DD8C
:1028600003C0C6010E94620B20E040E050E06E2DE4
:102870007F2D809192229091932203D981119BCF39
:1028800042CF21DBC501C6DE8C018981811191CF48
:10289000E0919422F091952241E08081811140E005
:1028A000C12CD12C78CF8091AA229091AB22A091FB
:1028B000AC22B091AD220196A11DB11D8093AA2238
:1028C0009093AB22A093AC22B093AD22089581E007
:1028D0008093E50782E390E056CC08951092A70814
:1028E0008CE08093A6081092A30883E08093A5084B
:1028F00088E18093A4080895CF93DF93FC01608161
:10290000662349F0EC01219680EA98E00E94DD03FD
:1029100069916111F9CFDF91CF9108958AE190E239
:10292000EBDF82E390E02FCC0895AF92BF92CF927D
:10293000DF92EF92FF920F931F93CF93DF930E944A
:10294000C0080E9460080E949B0380E18093850676
:1029500088E0809345068093410684E08093460694
:1029600080934206BBDF66E070E280EA98E00E9456
:10297000F80481E08093210603E514E120E030E0D3
:1029800041E061E070E081E290E2CCDDEC01A12C5D
:10299000B12CC12CD12CE12CF12C01E020E030E055
:1029A00044EF51E060E270E287E694E158D920E01C
:1029B00030E044EF51E060E270E28EE894E14FD9FC
:1029C00088DA00E010E020E030E0AC0161E0CE0108
:1029D000DFDD46DA80E090E0DF91CF911F910F912B
:1029E000FF90EF90DF90CF90BF90AF900895A1E25D
:1029F0001A2EAA1BBB1BFD010DC0AA1FBB1FEE1F79
:102A0000FF1FA217B307E407F50720F0A21BB30BC3
:102A1000E40BF50B661F771F881F991F1A9469F73F
:102A200060957095809590959B01AC01BD01CF019B
:102A30000895EE0FFF1F881F8BBF0790F691E02DC2
:102A400019940F931F93CF93DF938230910510F465
:102A500082E090E0E091B022F091B12220E030E0FD
:102A6000A0E0B0E0309719F14081518102811381DB
:102A700048175907C8F08417950769F4109731F083
:102A800012960C93129713961C9327C00093B022B2
:102A90001093B12222C02115310519F042175307B6
:102AA00018F49A01BD01EF01DF01F801DBCF211518
:102AB0003105F9F0281B390B2430310580F48A8167
:102AC0009B816115710521F0FB018283938304C012
:102AD0008093B0229093B122FE01329644C0FE0151
:102AE000E20FF31F81939193225031092883398398
:102AF0003AC02091AE223091AF22232B41F4209195
:102B00000220309103202093AE223093AF222091F7
:102B10000020309101202115310541F42DB73EB739
:102B20004091042050910520241B350BE091AE22EA
:102B3000F091AF22E217F307A0F42E1B3F0B2817EA
:102B4000390778F0AC014E5F5F4F2417350748F026
:102B50004E0F5F1F4093AE225093AF22819391930B
:102B600002C0E0E0F0E0CF01DF91CF911F910F9123
:102B70000895CF93DF93009709F481C0FC01329749
:102B800012821382A091B022B091B122109781F4E9
:102B900020813181820F931F2091AE223091AF228C
:102BA0002817390751F5E093AE22F093AF2267C0A2
:102BB000ED0120E030E0CE17DF0740F44A815B8171
:102BC0009E0141155105F1F0EA01F5CFC283D3838F
:102BD00040815181840F951FC817D90759F4888106
:102BE0009981840F951F0296808391838A819B81AE
:102BF000828393832115310529F4E093B022F09369
:102C0000B1223DC0E901EA83FB8349915991C40F88
:102C1000D51FEC17FD0761F480819181840F951F0A
:102C20000296E90188839983828193818A839B83B9
:102C3000E0E0F0E012968D919C911397009719F0C7
:102C4000FD01DC01F7CF8D919C9111979D012E5FC5
:102C50003F4F820F931F2091AE223091AF22281751
:102C6000390769F4309729F41092B0221092B122FA
:102C700002C012821382A093AE22B093AF22DF91E2
:102C8000CF910895FB01DC0102C001900D924150EB
:0A2C90005040D8F70895F894FFCFE4
:102C9A000000B22220008025000003000049444CB5
:102CAA004500546D72205376630061746173200A83
:102CBA00007450696E670062617761682000617410
:042CCA006173200012
:00000001FF
