:1000000046C2000065C2000063C2000061C2000079
:100010005FC200005DC200005BC2000059C2000068
:1000200057C2000055C2000053C2000051C2000078
:100030004FC200004DC200005DC5000088C5000031
:10004000B3C50000DEC5000009C6000034C60000CC
:100050005FC600008AC60000B5C60000E0C600000A
:1000600037C2000035C2000033C2000031C20000B8
:100070002FC200002DC200002BC2000029C20000C8
:1000800027C2000025C2000023C2000021C20000D8
:100090001FC200001DC200001BC2000019C20000E8
:1000A00017C2000015C2000013C2000011C20000F8
:1000B0000FC200000DC200000BC200000C94FE082D
:1000C0000C942B090C9458090C9485090C94B209D2
:1000D0000C94DF090C940C0A0C94390A0C94660AEF
:1000E0000C94930AF5C10000F3C10000F1C10000B7
:1000F000EFC10000EDC10000EBC10000E9C100004C
:10010000E7C10000E5C10000E3C10000E1C100005B
:10011000DFC10000DDC10000DBC10000D9C100006B
:10012000D7C10000D5C10000D3C10000D1C100007B
:10013000CFC10000A1C60000CCC60000F7C6000079
:1001400022C700004DC7000078C70000A3C7000009
:10015000CEC70000F9C700000C94D108B9C1000057
:10016000B7C10000B5C10000B3C10000B1C10000BB
:10017000AFC10000ADC10000ABC10000A9C10000CB
:10018000A7C10000A5C10000A3C10000A1C10000DB
:100190009FC100009DC100009BC1000099C10000EB
:1001A00097C1000095C1000093C1000091C10000FB
:1001B0000C94C00A0C94ED0A0C941A0B0C94470B87
:1001C0000C94740B0C94A10B83C1000081C100003E
:1001D0007FC100007DC100007BC1000079C100002B
:1001E00077C1000075C1000073C1000071C100003B
:1001F0006FC100006DC100006BC100000000000075
:10020000000000202020202000205050500000003E
:10021000005050F850F850502078A07028F020C0BE
:10022000C810204098186090A040A89068602040B6
:10023000000000001020404040201040201010100E
:100240002040005020F8205000002020F8202000FE
:1002500000000000602040000000F80000000000E6
:10026000000000606000081020408000708898A89E
:10027000C8887020602020202070708808102040DE
:10028000F8F810201008887010305090F81010F80E
:1002900080F008088870304080F0888870F8081076
:1002A00020404040708888708888707088887808FE
:1002B00010600060600060600000606000602040CE
:1002C000081020402010080000F800F800008040CE
:1002D0002010204080708808102000207088086856
:1002E000A8A87070888888F88888F08888F088883E
:1002F000F070888080808870E09088888890E0F82E
:100300008080F08080F8F88080E080808070888035
:1003100080988870888888F88888887020202020B5
:100320002070381010101090608890A0C0A09088A5
:10033000808080808080F888D8A88888888888888D
:10034000C8A898888870888888888870F08888F01D
:1003500080808070888888A89068F08888F0A09055
:1003600088788080700808F0F820202020202088DD
:1003700088888888887088888888885020888888B5
:10038000A8A8D8888888502050888888885020203D
:100390002020F80810204080F83820202020203825
:1003A00000804020100800E02020202020E0205085
:1003B0008800000000000000000000F8402010004D
:1003C000000000000070087888788080B0C88888B5
:1003D000F00000708080887008086898888878002D
:1003E000007088F88070304840E04040400000785D
:1003F000887808308080B0C88888882000602020F5
:1004000020701000301010906040404850605048FC
:10041000602020202020700000D0A8A8888800003C
:10042000B0C8888888000070888888700000F088CC
:10043000F08080000068987808080000B0C88080CC
:1004400080000070807008F04040E040404830007C
:100450000088888898680000888888502000008874
:1004600088A8A8500000885020508800008888780C
:1004700008700000F8102040F810202040202010C4
:100480002020202020202040202010202040112447
:100490001FBECFEFCDBFDFE5DEBF00E00CBF10E237
:1004A000A0E0B0E2E8E0F8E200E00BBF02C0079095
:1004B0000D92A432B107D9F722E2A4E2B0E201C062
:1004C0001D92A83DB207E1F70E94AF130C940214ED
:1004D00097CD6150710981099109D9F70895BF92AB
:1004E000CF92DF92EF92FF920F931F93CF93DF9300
:1004F0001F92CDB7DEB700E016E06894FF24F3F852
:10050000F801F68265E370E080E090E0E2DFF80158
:10051000F58265E370E080E090E0DBDF0F2EFBE228
:10052000BF2EF02DB98280EA99E00E946B10C12C99
:10053000D12C760100E412E42FE030E043E0BE016C
:100540006F5F7F4F80EA99E00E949A1000E616E004
:10055000FF24F394F801F682B982BE016F5F7F4FEA
:1005600080EA99E00E94B410F801F682E0EAF9E02E
:10057000818185FFFDCF80EA8093A009E0EAF9E060
:10058000818186FFFDCFE0EAF9E080E4818380810C
:10059000BE016F5F7F4F80EA99E00E94CA108BE234
:1005A0008983BE016F5F7F4F80EA99E00E94B4109B
:1005B00081E080936606E0EAF9E0818185FFFDCF66
:1005C00086EA8093A009E0EAF9E0818186FFFDCF09
:1005D000E0EAF9E080E481838081BE016F5F7F4FB4
:1005E00080EA99E00E94CA108BE28983BE016F5FA6
:1005F0007F4F80EA99E00E94B41081E08093660604
:10060000E0EAF9E0818185FFFDCF88EC8093A009C5
:10061000E0EAF9E0818186FFFDCFE0EAF9E080E4DD
:1006200081838081BE016F5F7F4F80EA99E00E94E5
:10063000CA108BE28983BE016F5F7F4F80EA99E029
:100640000E94B41081E080936606E0EAF9E08181BF
:1006500085FFFDCF82EA8093A009E0EAF9E081817D
:1006600086FFFDCFE0EAF9E080E481838081BE016E
:100670006F5F7F4F80EA99E00E94CA108BE2898306
:10068000BE016F5F7F4F80EA99E00E94B41081E065
:1006900080936606E0EAF9E0818185FFFDCF8FE275
:1006A0008093A009E0EAF9E0818186FFFDCFE0EACE
:1006B000F9E080E481838081BE016F5F7F4F80EA33
:1006C00099E00E94CA108BE28983BE016F5F7F4F61
:1006D00080EA99E00E94B41081E080936606E0EA27
:1006E000F9E0818185FFFDCF88EF8093A009E0EAE2
:1006F000F9E0818186FFFDCFE0EAF9E080E48183C3
:100700008081BE016F5F7F4F80EA99E00E94CA102E
:100710008BE28983BE016F5F7F4F80EA99E00E9480
:10072000B41081E080936606E0EAF9E0818185FFFC
:10073000FDCF1092A009E0EAF9E0818186FFFDCFAC
:10074000E0EAF9E080E481838081BE016F5F7F4F42
:1007500080EA99E00E94CA108BE28983BE016F5F34
:100760007F4F80EA99E00E94B41081E08093660692
:10077000E0EAF9E0818185FFFDCF81E28093A00965
:10078000E0EAF9E0818186FFFDCFE0EAF9E080E46C
:1007900081838081BE016F5F7F4F80EA99E00E9474
:1007A000CA108BE28983BE016F5F7F4F80EA99E0B8
:1007B0000E94B41081E080936606E0EAF9E081814E
:1007C00085FFFDCF81E88093A009E0EAF9E081810F
:1007D00086FFFDCFE0EAF9E080E481838081BE01FD
:1007E0006F5F7F4F80EA99E00E94CA108BE2898395
:1007F000BE016F5F7F4F80EA99E00E94B41081E0F4
:1008000080936606E0EAF9E0818185FFFDCF81E211
:100810008093A009E0EAF9E0818186FFFDCFE0EA5C
:10082000F9E080E481838081BE016F5F7F4F80EAC1
:1008300099E00E94CA108BE28983BE016F5F7F4FEF
:1008400080EA99E00E94B41081E080936606E0EAB5
:10085000F9E0818185FFFDCF8FEA8093A009E0EA6E
:10086000F9E0818186FFFDCFE0EAF9E080E4818351
:100870008081BE016F5F7F4F80EA99E00E94CA10BD
:100880000F90DF91CF911F910F91FF90EF90DF902C
:10089000CF90BF900895FF920F931F93CF93DF9354
:1008A0001F92CDB7DEB7082FF62E142F0E94E51049
:1008B0000F70006B8BE28983BE016F5F7F4F80EA10
:1008C00099E00E94B41081E080936606E0EAF9E0C6
:1008D000918195FFFDCF0093A009E0EAF9E08181C5
:1008E00086FFFDCFE0EAF9E080E481838081BE01EC
:1008F0006F5F7F4F80EA99E00E94CA100F2D0F773B
:1009000002950F7000618BE28983BE016F5F7F4F9C
:1009100080EA99E00E94B41081E080936606E0EAE4
:10092000F9E0818185FFFDCF0093A009E0EAF9E0BD
:10093000818186FFFDCFE0EAF9E080E48183808158
:10094000BE016F5F7F4F80EA99E00E94CA100F2DB1
:100950000F708BE28983BE016F5F7F4F80EA99E061
:100960000E94B41081E080936606E0EAF9E081819C
:1009700085FFFDCF0093A009E0EAF9E0818186FFC1
:10098000FDCFE0EAF9E080E481838081BE016F5F02
:100990007F4F80EA99E00E94CA108BE28983BE01F2
:1009A0006F5F7F4F80EA99E00E94B41081E08093EE
:1009B0006506E0EAF9E0818185FFFDCF1093A0098B
:1009C000E0EAF9E0818186FFFDCFE0EAF9E080E42A
:1009D0008183808181E080936606BE016F5F7F4FD7
:1009E00080EA99E00E94CA100F90DF91CF911F9189
:1009F0000F91FF9008950F931F93CF93DF931F9252
:100A0000CDB7DEB784E290E20E94E01068DD8BE2B1
:100A10008983BE016F5F7F4F80EA99E00E94B41026
:100A200081E080936606E0EAF9E0818185FFFDCFF1
:100A300080E48093A009E0EAF9E0818186FFFDCFA0
:100A4000E0EAF9E080E481838081BE016F5F7F4F3F
:100A500080EA99E00E94CA1000E00AC040E0612FDD
:100A6000802F19DF1F5F1038C9F70F5F043011F0B6
:100A700010E0F4CF0F90DF91CF911F910F91089567
:100A8000FF920F931F93CF93DF93882354F160322B
:100A900040F5D42FC82FF62EF694F694F69470E015
:100AA00088E0F89E60197109112481E090E08C01C2
:100AB00002C0000F111F6A95E2F76C2F8F2D0E9464
:100AC000F310D13021F028F0D23031F006C0802B65
:100AD00004C00095802301C08027482F6C2F8F2DE4
:100AE000DADEDF91CF911F910F91FF9008950C9462
:100AF000F31008951F920F920FB60F9211240BB6A8
:100B00000F922F933F934F935F936F937F938F93A6
:100B10009F93AF93BF93EF93FF93E0916A22F0917D
:100B20006B22309709F01995FF91EF91BF91AF912A
:100B30009F918F917F916F915F914F913F912F91F5
:100B40000F900BBE0F900FBE0F901F9018951F9225
:100B50000F920FB60F9211240BB60F922F933F9363
:100B60004F935F936F937F938F939F93AF93BF93B5
:100B7000EF93FF93E0916822F0916922309709F09A
:100B80001995FF91EF91BF91AF919F918F917F91B7
:100B90006F915F914F913F912F910F900BBE0F90EE
:100BA0000FBE0F901F9018951F920F920FB60F92C5
:100BB00011240BB60F922F933F934F935F936F9334
:100BC0007F938F939F93AF93BF93EF93FF93E091A6
:100BD0006622F0916722309709F01995FF91EF9105
:100BE000BF91AF919F918F917F916F915F914F9145
:100BF0003F912F910F900BBE0F900FBE0F901F9043
:100C000018951F920F920FB60F9211240BB60F92E8
:100C10002F933F934F935F936F937F938F939F9304
:100C2000AF93BF93EF93FF93E0916422F09165221D
:100C3000309709F01995FF91EF91BF91AF919F9176
:100C40008F917F916F915F914F913F912F910F9075
:100C50000BBE0F900FBE0F901F9018951F920F9212
:100C60000FB60F9211240BB60F922F933F934F9311
:100C70005F936F937F938F939F93AF93BF93EF9304
:100C8000FF93E0916222F0916322309709F0199569
:100C9000FF91EF91BF91AF919F918F917F916F9154
:100CA0005F914F913F912F910F900BBE0F900FBE10
:100CB0000F901F9018951F920F920FB60F9211244C
:100CC0000BB60F922F933F934F935F936F937F9346
:100CD0008F939F93AF93BF93EF93FF93E091602225
:100CE000F0916122309709F01995FF91EF91BF9132
:100CF000AF919F918F917F916F915F914F913F91B4
:100D00002F910F900BBE0F900FBE0F901F90189554
:100D10001F920F920FB60F9211240BB60F922F93C2
:100D20003F934F935F936F937F938F939F93AF9373
:100D3000BF93EF93FF93E0915E22F0915F22309793
:100D400009F01995FF91EF91BF91AF919F918F910C
:100D50007F916F915F914F913F912F910F900BBEBB
:100D60000F900FBE0F901F9018951F920F920FB605
:100D70000F9211240BB60F922F933F934F935F93D3
:100D80006F937F938F939F93AF93BF93EF93FF9353
:100D9000E0915C22F0915D22309709F01995FF9166
:100DA000EF91BF91AF919F918F917F916F915F91E3
:100DB0004F913F912F910F900BBE0F900FBE0F9050
:100DC0001F9018951F920F920FB60F9211240BB619
:100DD0000F922F933F934F935F936F937F938F93D4
:100DE0009F93AF93BF93EF93FF93E0915A22F091BB
:100DF0005B22309709F01995FF91EF91BF91AF9168
:100E00009F918F917F916F915F914F913F912F9122
:100E10000F900BBE0F900FBE0F901F9018951F9252
:100E20000F920FB60F9211240BB60F922F933F9390
:100E30004F935F936F937F938F939F93AF93BF93E2
:100E4000EF93FF93E0915822F0915922309709F0E7
:100E50001995FF91EF91BF91AF919F918F917F91E4
:100E60006F915F914F913F912F910F900BBE0F901B
:100E70000FBE0F901F9018951F920F920FB60F92F2
:100E800011240BB60F922F933F934F935F936F9361
:100E90007F938F939F93AF93BF93EF93FF93E091D3
:100EA0005622F0915722309709F01995FF91EF9152
:100EB000BF91AF919F918F917F916F915F914F9172
:100EC0003F912F910F900BBE0F900FBE0F901F9070
:100ED00018951F920F920FB60F9211240BB60F9216
:100EE0002F933F934F935F936F937F938F939F9332
:100EF000AF93BF93EF93FF93E0915422F09155226B
:100F0000309709F01995FF91EF91BF91AF919F91A3
:100F10008F917F916F915F914F913F912F910F90A2
:100F20000BBE0F900FBE0F901F9018951F920F923F
:100F30000FB60F9211240BB60F922F933F934F933E
:100F40005F936F937F938F939F93AF93BF93EF9331
:100F5000FF93E0915222F0915322309709F01995B6
:100F6000FF91EF91BF91AF919F918F917F916F9181
:100F70005F914F913F912F910F900BBE0F900FBE3D
:100F80000F901F9018951F920F920FB60F92112479
:100F90000BB60F922F933F934F935F936F937F9373
:100FA0008F939F93AF93BF93EF93FF93E091502262
:100FB000F0915122309709F01995FF91EF91BF916F
:100FC000AF919F918F917F916F915F914F913F91E1
:100FD0002F910F900BBE0F900FBE0F901F90189582
:100FE0001F920F920FB60F9211240BB60F922F93F0
:100FF0003F934F935F936F937F938F939F93AF93A1
:10100000BF93EF93FF93E0914E22F0914F223097E0
:1010100009F01995FF91EF91BF91AF919F918F9139
:101020007F916F915F914F913F912F910F900BBEE8
:101030000F900FBE0F901F9018951F920F920FB632
:101040000F9211240BB60F922F933F934F935F9300
:101050006F937F938F939F93AF93BF93EF93FF9380
:10106000E0914C22F0914D22309709F01995FF91B3
:10107000EF91BF91AF919F918F917F916F915F9110
:101080004F913F912F910F900BBE0F900FBE0F907D
:101090001F9018951F920F920FB60F9211240BB646
:1010A0000F922F933F934F935F936F937F938F9301
:1010B0009F93AF93BF93EF93FF93E0914A22F091F8
:1010C0004B22309709F01995FF91EF91BF91AF91A5
:1010D0009F918F917F916F915F914F913F912F9150
:1010E0000F900BBE0F900FBE0F901F9018951F9280
:1010F0000F920FB60F9211240BB60F922F933F93BE
:101100004F935F936F937F938F939F93AF93BF930F
:10111000EF93FF93E0914822F0914922309709F034
:101120001995FF91EF91BF91AF919F918F917F9111
:101130006F915F914F913F912F910F900BBE0F9048
:101140000FBE0F901F9018951F920F920FB60F921F
:1011500011240BB60F922F933F934F935F936F938E
:101160007F938F939F93AF93BF93EF93FF93E09100
:101170004622F0914722309709F01995FF91EF919F
:10118000BF91AF919F918F917F916F915F914F919F
:101190003F912F910F900BBE0F900FBE0F901F909D
:1011A00018951F920F920FB60F9211240BB60F9243
:1011B0002F933F934F935F936F937F938F939F935F
:1011C000AF93BF93EF93FF93E0914422F0914522B8
:1011D000309709F01995FF91EF91BF91AF919F91D1
:1011E0008F917F916F915F914F913F912F910F90D0
:1011F0000BBE0F900FBE0F901F9018951F920F926D
:101200000FB60F9211240BB60F922F933F934F936B
:101210005F936F937F938F939F93AF93BF93EF935E
:10122000FF93E0914222F0914322309709F0199503
:10123000FF91EF91BF91AF919F918F917F916F91AE
:101240005F914F913F912F910F900BBE0F900FBE6A
:101250000F901F9018951F920F920FB60F921124A6
:101260000BB60F922F933F934F935F936F937F93A0
:101270008F939F93AF93BF93EF93FF93E09140229F
:10128000F0914122309709F01995FF91EF91BF91AC
:10129000AF919F918F917F916F915F914F913F910E
:1012A0002F910F900BBE0F900FBE0F901F901895AF
:1012B0001F920F920FB60F9211240BB60F922F931D
:1012C0003F934F935F936F937F938F939F93AF93CE
:1012D000BF93EF93FF93E0913E22F0913F2230972E
:1012E00009F01995FF91EF91BF91AF919F918F9167
:1012F0007F916F915F914F913F912F910F900BBE16
:101300000F900FBE0F901F9018951F920F920FB65F
:101310000F9211240BB60F922F933F934F935F932D
:101320006F937F938F939F93AF93BF93EF93FF93AD
:10133000E0913C22F0913D22309709F01995FF9100
:10134000EF91BF91AF919F918F917F916F915F913D
:101350004F913F912F910F900BBE0F900FBE0F90AA
:101360001F9018951F920F920FB60F9211240BB673
:101370000F922F933F934F935F936F937F938F932E
:101380009F93AF93BF93EF93FF93E0913A22F09135
:101390003B22309709F01995FF91EF91BF91AF91E2
:1013A0009F918F917F916F915F914F913F912F917D
:1013B0000F900BBE0F900FBE0F901F9018951F92AD
:1013C0000F920FB60F9211240BB60F922F933F93EB
:1013D0004F935F936F937F938F939F93AF93BF933D
:1013E000EF93FF93E0913822F0913922309709F082
:1013F0001995FF91EF91BF91AF919F918F917F913F
:101400006F915F914F913F912F910F900BBE0F9075
:101410000FBE0F901F9018951F920F920FB60F924C
:1014200011240BB60F922F933F934F935F936F93BB
:101430007F938F939F93AF93BF93EF93FF93E0912D
:101440003622F0913722309709F01995FF91EF91EC
:10145000BF91AF919F918F917F916F915F914F91CC
:101460003F912F910F900BBE0F900FBE0F901F90CA
:1014700018951F920F920FB60F9211240BB60F9270
:101480002F933F934F935F936F937F938F939F938C
:10149000AF93BF93EF93FF93E0913422F091352205
:1014A000309709F01995FF91EF91BF91AF919F91FE
:1014B0008F917F916F915F914F913F912F910F90FD
:1014C0000BBE0F900FBE0F901F9018951F920F929A
:1014D0000FB60F9211240BB60F922F933F934F9399
:1014E0005F936F937F938F939F93AF93BF93EF938C
:1014F000FF93E0913222F0913322309709F0199551
:10150000FF91EF91BF91AF919F918F917F916F91DB
:101510005F914F913F912F910F900BBE0F900FBE97
:101520000F901F9018951F920F920FB60F921124D3
:101530000BB60F922F933F934F935F936F937F93CD
:101540008F939F93AF93BF93EF93FF93E0913022DC
:10155000F0913122309709F01995FF91EF91BF91E9
:10156000AF919F918F917F916F915F914F913F913B
:101570002F910F900BBE0F900FBE0F901F901895DC
:101580001F920F920FB60F9211240BB60F922F934A
:101590003F934F935F936F937F938F939F93AF93FB
:1015A000BF93EF93FF93E0912E22F0912F2230977B
:1015B00009F01995FF91EF91BF91AF919F918F9194
:1015C0007F916F915F914F913F912F910F900BBE43
:1015D0000F900FBE0F901F9018951F920F920FB68D
:1015E0000F9211240BB60F922F933F934F935F935B
:1015F0006F937F938F939F93AF93BF93EF93FF93DB
:10160000E0912C22F0912D22309709F01995FF914D
:10161000EF91BF91AF919F918F917F916F915F916A
:101620004F913F912F910F900BBE0F900FBE0F90D7
:101630001F9018951F920F920FB60F9211240BB6A0
:101640000F922F933F934F935F936F937F938F935B
:101650009F93AF93BF93EF93FF93E0912A22F09172
:101660002B22309709F01995FF91EF91BF91AF911F
:101670009F918F917F916F915F914F913F912F91AA
:101680000F900BBE0F900FBE0F901F9018951F92DA
:101690000F920FB60F9211240BB60F922F933F9318
:1016A0004F935F936F937F938F939F93AF93BF936A
:1016B000EF93FF93E0912822F0912922309709F0CF
:1016C0001995FF91EF91BF91AF919F918F917F916C
:1016D0006F915F914F913F912F910F900BBE0F90A3
:1016E0000FBE0F901F9018951F920F920FB60F927A
:1016F00011240BB60F922F933F934F935F936F93E9
:101700007F938F939F93AF93BF93EF93FF93E0915A
:101710002622F0912722309709F01995FF91EF9139
:10172000BF91AF919F918F917F916F915F914F91F9
:101730003F912F910F900BBE0F900FBE0F901F90F7
:1017400018951F920F920FB60F9211240BB60F929D
:101750002F933F934F935F936F937F938F939F93B9
:10176000AF93BF93EF93FF93E0912422F091252252
:10177000309709F01995FF91EF91BF91AF919F912B
:101780008F917F916F915F914F913F912F910F902A
:101790000BBE0F900FBE0F901F901895CF93CFB731
:1017A000F894282F392F211588E0380739F461E0A3
:1017B00083E0D0D564E083E0CDD543C0203488E019
:1017C000380739F462E083E0C5D564E083E0C2D530
:1017D00038C0211589E0380739F461E084E0BAD5D2
:1017E00064E084E0B7D52DC0203489E0380739F4AF
:1017F00062E084E0AFD564E084E0ACD522C021157E
:101800008AE0380739F461E085E0A4D564E085E03A
:10181000A1D517C020348AE0380739F462E085E0AA
:1018200099D564E085E096D50CC021153B4039F48C
:1018300061E086E08FD564E086E08CD502C0CFBF42
:101840000EC08091D3228F3F09F4FFCF9FB7F89449
:10185000E2EDF2E281818F5F81839FBFCFBFCF91A5
:101860000895811528E0920729F460936A22709305
:101870006B220895803428E0920729F460935E2259
:1018800070935F220895811529E0920729F46093EF
:101890005622709357220895803429E0920729F444
:1018A00060934A2270934B22089581152AE0920793
:1018B00029F46093422270934322089580342AE0F1
:1018C000920729F460933622709337220895811588
:1018D0009B4021F460932E2270932F220895FC01E7
:1018E000918195FFFDCF608380E090E00895FC0139
:1018F00091819923ECF7808108954F925F926F92C6
:101900007F928F929F92AF92BF92EF92FF920F932E
:101910001F93CF937C014A015B0128013901FC012F
:10192000848182FF16C0D901C801689412F8B69567
:10193000A795979587951694D1F7B901A801032E1D
:1019400036E176956795579547953A95D1F7302DBD
:1019500015C0D901C801689413F8B695A795979555
:1019600087951694D1F7B901A801032E37E1769532
:101970006795579547953A95D1F7302D8815990574
:10198000AA05BB0508F4A2C084169506A606B706EC
:1019900008F49EC0F701848182FD04C0880C991C64
:1019A000AA1CBB1CC301B201A501940100D72F3FA3
:1019B00031054105510508F48DC08FEF90E0A0E09E
:1019C000B0E0C9EF05C0281739074A075B0758F090
:1019D000880F991FAA1FBB1FCD3F0CF48160CF5FFA
:1019E000C73089F74DC0CC230CF04AC0D501C401E3
:1019F000880F991FAA1FBB1F880F991FAA1FBB1F03
:101A0000880F991FAA1FBB1F481A590A6A0A7B0A26
:101A1000CE3FECF48DEF9FEF8C1B9109C7FD9395A2
:101A200004C0440C551C661C771C8A95D2F7D5015E
:101A3000C401B695A79597958795BC01CD01640D16
:101A4000751D861D971DA5019401B1D635C083E093
:101A50008C0FA501940104C0220F331F441F551F92
:101A60008A95D2F7DA01C901B695A795979587951A
:101A7000BC01CD01640D751D861D971D98D61CC037
:101A800083E08C0FA501940104C0220F331F441F73
:101A9000551F8A95D2F7DA01C901B695A795979592
:101AA0008795BC01CD01640D751D861D971D7FD6E0
:101AB0002150310941095109832F8F70C295C07F90
:101AC000C82BF701C783268381E018C080E016C0C9
:101AD00080E014C0D501C401880F991FAA1FBB1F45
:101AE000880F991FAA1FBB1F880F991FAA1FBB1F12
:101AF000481A590A6A0A7B0AC9EF8CCFCF911F9105
:101B00000F91FF90EF90BF90AF909F908F907F903C
:101B10006F905F904F9008950F931F93CF93DF9333
:101B2000EC018B01009709F4E6C0803C910521F49B
:101B300060E180E00FD4DFC0C03881E0D80721F435
:101B400062E080E007D4D7C0C115E1E0DE0721F4F0
:101B500061E080E0FFD3CFC0C038F3E0DF0721F4BD
:101B600061E081E0F7D3C7C0C03983E0D80721F432
:101B700061E082E0EFD3BFC0C115E2E0DE0721F4EF
:101B800062E081E0E7D3B7C0C034F2E0DF0721F4C0
:101B900062E082E0DFD3AFC0C03283E0D80721F437
:101BA00064E082E0D7D3A7C0C115E8E0DE0721F4E6
:101BB00061E083E0CFD39FC0C115F9E0DF0721F4D6
:101BC00061E084E0C7D397C0C1158AE0D80721F44B
:101BD00061E085E0BFD38FC0C115EBE0DE0721F4E3
:101BE00061E086E0B7D387C0C034F8E0DF0721F4B6
:101BF00062E083E0AFD37FC0C03489E0D80721F42E
:101C000062E084E0A7D377C0C034EAE0DE0721F4C5
:101C100062E085E09FD36FC0C039F8E0DF0721F4B0
:101C200064E083E097D367C0C03989E0D80721F426
:101C300064E084E08FD35FC0C039EAE0DE0721F4BE
:101C400064E085E087D357C0C039FBE0DF0721F4AB
:101C500064E086E07FD34FC0C03C88E0D80721F421
:101C600068E083E077D347C0C03CE9E0DE0721F4B9
:101C700068E084E06FD33FC0C03AF8E0DF0721F4AA
:101C800060E183E067D337C0C03A89E0D80721F428
:101C900060E184E05FD32FC0C03AEAE0DE0721F4C0
:101CA00060E185E057D327C0C03AFBE0DF0721F4AD
:101CB00060E186E04FD31FC0C03B88E0D80721F425
:101CC00060E283E047D317C0C03BE9E0DE0721F4C0
:101CD00060E284E03FD30FC0C038F4E0DF0721F4B6
:101CE00060E483E037D307C0C03A84E0D80719F432
:101CF00060E485E02FD38D818F738D83F80195810A
:101D00008481892B9681911198E0892B8D83F8012C
:101D1000408151816281738100E018E428EE31E056
:101D2000CE01EBDD9C8198609C839C8190619C83BB
:101D3000DF91CF911F910F910895CF92DF92EF9293
:101D4000FF920F931F93CF93DF93EC01D901C8014A
:101D5000B695A79597958795481759076A077B0702
:101D600070F46A017B01CC0CDD1CEE1CFF1CC90168
:101D7000B801A70196011BD52150310902C020E00E
:101D800030E0832F8F708F832E83DF91CF911F914F
:101D90000F91FF90EF90DF90CF900895EF92FF9218
:101DA0000F931F93CF93DF93EC017B01009709F40E
:101DB0007BC1803C910521F460E180E0CBD274C10D
:101DC0008038914021F462E080E0C4D26DC1C11539
:101DD00081E0D80721F461E080E0BCD265C1C03861
:101DE000E3E0DE0721F461E081E0B4D25DC1C039F7
:101DF000F3E0DF0721F461E082E0ACD255C1C11508
:101E000032E0D30721F462E081E0A4D24DC1C034B6
:101E100082E0D80721F462E082E09CD245C1C03262
:101E2000E3E0DE0721F464E082E094D23DC1C11515
:101E3000F8E0DF0721F461E083E08CD235C1C11501
:101E400039E0D30721F461E084E084D22DC1C115CB
:101E50008AE0D80721F461E085E07CD225C1C11574
:101E6000EBE0DE0721F461E086E074D21DC1C034EE
:101E7000F8E0DF0721F462E083E06CD215C1C034E2
:101E800039E0D30721F462E084E064D20DC1C034AC
:101E90008AE0D80721F462E085E05CD205C1C03950
:101EA000E8E0DE0721F464E083E054D2FDC0C039ED
:101EB000F9E0DF0721F464E084E04CD2F5C0C039DA
:101EC0003AE0D30721F464E085E044D2EDC0C039A4
:101ED0008BE0D80721F464E086E03CD2E5C0C03C4A
:101EE000E8E0DE0721F468E083E034D2DDC0C03CE6
:101EF000F9E0DF0721F468E084E02CD2D5C0C03AD5
:101F000038E0D30761F460E183E024D2E0EAF8E04E
:101F100084818F7E8483F7012481225043C0C03A9C
:101F2000F9E0DF0721F460E184E014D2BDC0C03ADB
:101F30003AE0D30721F460E185E00CD2B5C0C03AA5
:101F40008BE0D80721F460E186E004D2ADC0C03B4D
:101F5000E8E0DE0721F460E283E0FCD1A5C0C03BED
:101F6000F9E0DF0721F460E284E0F4D19DC0C038DD
:101F700034E0D30721F460E483E0ECD195C0C03AAB
:101F800084E0D80721F460E485E0E4D18DC08C8141
:101F90008F7E8C83FB0124812250CE01C03AF8E071
:101FA000DF0731F480914E0684FD86C011E185C0C3
:101FB000803B38E0930779F0803AE9E09E0731F4FE
:101FC00030916E0634FD7CC019E110C0803BF9E011
:101FD0009F07A9F001C015E1803A3AE0930731F478
:101FE00080918E0684FD6EC011E20CC0803A9B4049
:101FF00049F48091AE0684FD04C019E203C01DE1DE
:1020000001C01DE2E12FE695E695E69530E2E39FFB
:10201000F0011124FA5F177081E090E0012E02C0F8
:10202000880F991F0A94E2F78183223010F040E074
:1020300001C040E4DF015096A10FB11D3FB7F894F5
:102040002C9127702C939C91942B9C933FBF85835C
:102050008D81806C8D83F70184818D7F813021F4A7
:102060008D8182608D8303C08D818D7F8D83F7018B
:102070008581882321F08D8184608D8303C08D81CB
:102080008B7F8D83F701408151816281738100E0F4
:1020900018E428EE31E0CE0150DE8C8188608C831C
:1020A0008C8180618C8310C08C818F7E8C83F70142
:1020B00024812250CE017CCF15E180EA98E086CFC2
:1020C0001DE194CF15E29ECFDF91CF911F910F912B
:1020D000FF90EF900895803A28E0920721F460E1A4
:1020E00083E038C10895803B28E0920721F460E244
:1020F00083E030C10895803A29E0920721F460E13D
:1021000084E028C10895803B29E0920721F460E231
:1021100084E020C10895803A2AE0920721F460E12A
:1021200085E018C10895803A9B4019F460E186E08B
:1021300011C108950F931F93CF93DF9300D000D068
:10214000CDB7DEB709831A832B833C834D831E8270
:10215000BE016F5F7F4F22DE2696CDBFDEBFDF91CF
:10216000CF911F910F910895FB018081E82FE69593
:10217000E695E69540E2E49FF0011124FA5F87704E
:1021800021E030E0A90102C0440F551F8A95E2F713
:1021900046830895FB018081E82FE695E695E69554
:1021A00040E2E49FF0011124FA5F877021E030E003
:1021B000A90102C0440F551F8A95E2F7458308958F
:1021C00080936C2290936D22089520916C2230911F
:1021D0006D2290E8899F200D311D1124F901E60F31
:1021E000F11D4083089520916C2230916D2290E87A
:1021F000899F200D311D1124F901E60FF11D808109
:102200000895FF920F931F93CF93DF93E42FF0E095
:10221000E80FF11DE138F1051CF0C0E84C2F481B18
:10222000442309F450C0D62FD695D695D69570E0A4
:1022300098E0D99F601971091124E1E0F0E0DF0115
:1022400002C0AA0FBB1F6A95E2F7FA2E213021F0D7
:10225000A8F0223039F137C0C42F1FEF180F012F1B
:102260000C0F602F8D2F0E9477054F2D482B602F6C
:102270008D2F0E944B04C15091F725C0C42F1FEF32
:10228000180FFA2EF094012F0C0F602F8D2F0E9443
:1022900077054F2D4823602F8D2F0E944B04C1508E
:1022A00091F711C0C42F1FEF180F012F0C0F602FD3
:1022B0008D2F0E9477054F2D4827602F8D2F0E946C
:1022C0004B04C15091F7DF91CF911F910F91FF9077
:1022D0000895FF920F931F93CF93DF93222369F00A
:1022E000F42E182FC22FDFEFD60F6D2F6C0F202F7B
:1022F0004F2D812F86DFC150C1F7DF91CF911F9104
:102300000F91FF9008958FEF80937000809371007C
:1023100080937200809373008093740080937500A3
:10232000809376009FB7F894E0E5F0E080818260CA
:1023300080839FBF818181FFFDCF61E080E490E0D9
:102340009CD09FB7F894E0E5F0E080818E7F808399
:102350009FBF08959FB7F894E82FF0E0E059FF4F32
:1023600060958081682360839FBF0895AF92BF927C
:10237000CF92DF92EF92FF920F931F93CF93DF9351
:10238000C82FE62EB42E690100E0F90124814381B3
:102390006B2D8E2D9EDFF601808181113AC08381E5
:1023A000282F269526952695877009F02F5FF60130
:1023B000A4808C2F90E03581831B91092A9D900188
:1023C0001124829FA001839F500D929F500D1124D4
:1023D00001811281040F151FF601F380FF20A9F07F
:1023E000D0E0C0E08E2D8C0F9C2F977021F4F80167
:1023F000D4910F5F1F4FDD2324F441E06B2D0E9429
:102400004005DD0FCF5FFC12EDCFB394AA94A1106D
:10241000E3CFDF91CF911F910F91FF90EF90DF906D
:10242000CF90BF90AF900895DF92EF92FF920F93FD
:102430001F93CF93DF93D62E042F7901EC01162F33
:1024400089918A3031F4F70184818F5F080F1D2D47
:1024500009C08D3039F09701402F612F87DFF701D8
:102460008381180F88818111EBCFDF91CF911F916C
:102470000F91FF90EF90DF9008951BBEFC0128EDB7
:1024800024BF60830895CF93DF93FC0120E030E008
:10249000C62FD0E0DE01022E02C0B595A7950A94A2
:1024A000E2F7A0FD508B2F5F3F4F3196283031056A
:1024B00089F740FF0AC041FF03C0FC01658302C0E9
:1024C000FC016683FC01618302C0FC016283DF9131
:1024D000CF91089543E050E061E080EE97E0D3DFD4
:1024E00043E050E062E080EE97E0CDDF43E050E073
:1024F00060E180E696E0C7DF41E050E460E280E61C
:1025000096E0C1DF40E05BE160E280E896E0BBDF9F
:1025100040E05BE162E080EA96E0B5DF40E05BE14D
:1025200064E080EA96E0AFDF43E050E062E080E6FE
:1025300096E0A9DF43E050E068E080E696E0A3DFA4
:1025400043E050E068E080EA96E09DDF43E050E041
:1025500061E080E696E097DF43E050E068E080E0ED
:1025600096E091DF41E050E060E180E896E08BDFAB
:1025700043E050E062E080E696E085DF43E050E033
:1025800068E080E696E07FDF40E050E064E080E6CF
:1025900096E079DF43E050E060E180EA96E073DFA7
:1025A00040E050E061E080E096E06DDF40E050E028
:1025B00064E080E096E067DF40E050E062E080E2C7
:1025C00096E061DF43E050E068E080E496E05BDFA6
:1025D00040E050E064E080E496E055DF43E050E006
:1025E00068E080E696E04FDF40E050E064E080E69F
:1025F00096E049DF43E050E068E080E896E043DFA2
:1026000040E050E064E080E896E03DCF08956150FE
:10261000710981099109D9F708951092A7088CE0F2
:102620008093A6081092A30883E08093A50888E110
:102630008093A4080895CF93DF93FC016081662303
:1026400041F0EC01219680EA98E049D96991611145
:10265000FACFDF91CF910895CF93DF93CEE6D2E208
:1026600080EA98E044D98A3011F08993F9CF6EE678
:1026700072E28091102090911120BBD0892B21F41F
:1026800081E08093250610C06EE672E280910E20F4
:1026900090910F20AED0892B21F481E08093250604
:1026A00003C081E080932606DF91CF910895D4DFA7
:1026B00062E170E28EE692E29CD0892B21F48EE6F4
:1026C00092E2B9DF03C08EE692E2B5DF20E030E2AD
:1026D00040E060E08EE692E2A7DE6AEA71E184E023
:1026E00090E095CF0895B8CF089580E099E056D84E
:1026F00067E573E180E099E0B4D8E0E0F9E081813A
:10270000887F818380ED97E086A397A386818C7F65
:1027100086838681816086838081807F87608083D5
:102720007894089580E499E039D863E773E180E410
:1027300099E097D8E0E4F9E08181887F818388EE91
:1027400093E086A397A386818C7F868386818160B0
:1027500086838081807F8760808378940895BADE45
:10276000D2DD87E08093A2000E94FB0480E1809389
:10277000850688E0809345068093410684E0809337
:1027800046068093420649DF64E080E0E3DDE0E254
:10279000F4E0818180FDFDCF67E070E280EA98E09F
:1027A000BBD981E080932106A0DFBCDFFFCFA1E28F
:1027B0001A2EAA1BBB1BFD010DC0AA1FBB1FEE1FBB
:1027C000FF1FA217B307E407F50720F0A21BB30B06
:1027D000E40BF50B661F771F881F991F1A9469F782
:1027E00060957095809590959B01AC01BD01CF01DE
:1027F0000895FB01DC018D91019080190110D9F33E
:08280000990B0895F894FFCF35
:1028080000FC010607207D8025000003000016203B
:102818001D2041434B00626177616820006174614B
:042828007320000019
:00000001FF
