S010000074657355534152542E7372656339
S113000046C2000065C2000063C2000061C2000075
S11300105FC200005DC200005BC2000059C2000064
S113002057C2000055C2000053C2000051C2000074
S11300304FC200004DC200004BC2000049C2000084
S113004047C2000045C2000043C2000041C2000094
S11300503FC200003DC200003BC2000039C20000A4
S113006037C2000035C2000033C2000031C20000B4
S11300702FC200002DC200002BC2000029C20000C4
S113008027C2000025C2000023C2000021C20000D4
S11300901FC200001DC200001BC2000019C20000E4
S11300A017C2000015C2000013C2000011C20000F4
S11300B00FC200000DC200000BC2000009C2000004
S11300C007C2000005C2000003C2000001C2000014
S11300D0FFC10000FDC10000FBC10000F9C1000028
S11300E0F7C10000F5C10000F3C10000F1C1000038
S11300F0EFC10000EDC10000EBC10000E9C1000048
S1130100E7C10000E5C10000E3C10000E1C1000057
S1130110DFC10000DDC10000DBC10000D9C1000067
S1130120D7C10000D5C10000D3C10000D1C1000077
S1130130CFC10000CDC10000CBC10000C9C1000087
S1130140C7C10000C5C10000C3C10000C1C1000097
S1130150BFC10000BDC10000BBC10000B9C10000A7
S1130160B7C10000B5C10000B3C10000B1C10000B7
S1130170AFC10000ADC10000ABC10000A9C10000C7
S1130180A7C10000A5C10000A3C10000A1C10000D7
S11301909FC100009DC100009BC1000099C10000E7
S11301A097C1000095C1000093C1000091C10000F7
S11301B08FC100008DC100008BC1000089C1000007
S11301C087C1000085C1000083C1000081C1000017
S11301D07FC100007DC100007BC1000079C1000027
S11301E077C1000075C1000073C1000071C1000037
S11301F06FC100006DC100006BC100000000000071
S1130200000000202020202000205050500000003A
S1130210005050F850F850502078A07028F020C0BA
S1130220C810204098186090A040A89068602040B2
S1130230000000001020404040201040201010100A
S11302402040005020F8205000002020F8202000FA
S113025000000000602040000000F80000000000E2
S1130260000000606000081020408000708898A89A
S1130270C8887020602020202070708808102040DA
S1130280F8F810201008887010305090F81010F80A
S113029080F008088870304080F0888870F8081072
S11302A020404040708888708888707088887808FA
S11302B010600060600060600000606000602040CA
S11302C0081020402010080000F800F800008040CA
S11302D02010204080708808102000207088086852
S11302E0A8A87070888888F88888F08888F088883A
S11302F0F070888080808870E09088888890E0F82A
S11303008080F08080F8F88080E080808070888031
S113031080988870888888F88888887020202020B1
S11303202070381010101090608890A0C0A09088A1
S1130330808080808080F888D8A888888888888889
S1130340C8A898888870888888888870F08888F019
S113035080808070888888A89068F08888F0A09051
S113036088788080700808F0F820202020202088D9
S113037088888888887088888888885020888888B1
S1130380A8A8D88888885020508888888850202039
S11303902020F80810204080F83820202020203821
S11303A000804020100800E02020202020E0205081
S11303B08800000000000000000000F84020100049
S11303C0000000000070087888788080B0C88888B1
S11303D0F000007080808870080868988888780029
S11303E0007088F88070304840E040404000007859
S11303F0887808308080B0C88888882000602020F1
S113040020701000301010906040404850605048F8
S1130410602020202020700000D0A8A88888000038
S1130420B0C8888888000070888888700000F088C8
S1130430F08080000068987808080000B0C88080C8
S113044080000070807008F04040E0404048300078
S11304500088888898680000888888502000008870
S113046088A8A85000008850205088000088887808
S113047008700000F8102040F810202040202010C0
S11304802020202020202040202010202040112443
S11304901FBECFEFCDBFDFE5DEBF00E00CBF10E233
S11304A0A0E0B0E2E4E5F9E100E00BBF02C0079090
S11304B00D92A432B107D9F722E2A4E2B0E201C05E
S11304C01D92AA38B207E1F70E94230C0C94A80CE1
S11304D097CDBF92CF92DF92EF92FF920F931F932B
S11304E0CF93DF931F92CDB7DEB788E080930606E3
S11304F080E090E0019685339105E1F788E08093F0
S1130500050680E090E0019685339105E1F70F2E12
S1130510FBE2BF2EF02DB98280EA99E0C8D6C12C47
S1130520D12C760100E412E42FE030E043E0BE0178
S11305306F5F7F4F80EA99E0E9D600E616E0FF247A
S1130540F394F801F682B982BE016F5F7F4F80EAAF
S113055099E0F6D6F801F682E0EAF9E0818185FFB8
S1130560FDCF80EA8093A009E0EAF9E0818186FF6B
S1130570FDCFE0EAF9E080E481838081BE016F5F12
S11305807F4F80EA99E0F2D68BE28983BE016F5FE8
S11305907F4F80EA99E0D4D681E080936606E0EA52
S11305A0F9E0818185FFFDCF86EA8093A009E0EA26
S11305B0F9E0818186FFFDCFE0EAF9E080E4818300
S11305C08081BE016F5F7F4F80EA99E0CFD68BE2D6
S11305D08983BE016F5F7F4F80EA99E0B1D681E0E5
S11305E080936606E0EAF9E0818185FFFDCF88EC1F
S11305F08093A009E0EAF9E0818186FFFDCFE0EA7B
S1130600F9E080E481838081BE016F5F7F4F80EADF
S113061099E0ACD68BE28983BE016F5F7F4F80EA9D
S113062099E08ED681E080936606E0EAF9E0818164
S113063085FFFDCF82EA8093A009E0EAF9E0818199
S113064086FFFDCFE0EAF9E080E481838081BE018A
S11306506F5F7F4F80EA99E089D68BE28983BE0180
S11306606F5F7F4F80EA99E06BD681E080936606E6
S1130670E0EAF9E0818185FFFDCF8FE28093A00954
S1130680E0EAF9E0818186FFFDCFE0EAF9E080E469
S113069081838081BE016F5F7F4F80EA99E066D6D7
S11306A08BE28983BE016F5F7F4F80EA99E048D671
S11306B081E080936606E0EAF9E0818185FFFDCF61
S11306C088EF8093A009E0EAF9E0818186FFFDCFFD
S11306D0E0EAF9E080E481838081BE016F5F7F4FAF
S11306E080EA99E043D68BE28983BE016F5F7F4F36
S11306F080EA99E025D681E080936606E0EAF9E095
S1130700818185FFFDCF1092A009E0EAF9E08181A3
S113071086FFFDCFE0EAF9E080E481838081BE01B9
S11307206F5F7F4F80EA99E021D68BE28983BE0117
S11307306F5F7F4F80EA99E003D681E0809366067D
S1130740E0EAF9E0818185FFFDCF81E28093A00991
S1130750E0EAF9E0818186FFFDCFE0EAF9E080E498
S113076081838081BE016F5F7F4F80EA99E0FED56F
S11307708BE28983BE016F5F7F4F80EA99E0E0D509
S113078081E080936606E0EAF9E0818185FFFDCF90
S113079081E88093A009E0EAF9E0818186FFFDCF3A
S11307A0E0EAF9E080E481838081BE016F5F7F4FDE
S11307B080EA99E0DBD58BE28983BE016F5F7F4FCE
S11307C080EA99E0BDD581E080936606E0EAF9E02D
S11307D0818185FFFDCF81E28093A009E0EAF9E001
S11307E0818186FFFDCFE0EAF9E080E481838081A6
S11307F0BE016F5F7F4F80EA99E0B8D58BE28983B1
S1130800BE016F5F7F4F80EA99E09AD581E08093C3
S11308106606E0EAF9E0818185FFFDCF8FEA8093E7
S1130820A009E0EAF9E0818186FFFDCFE0EAF9E082
S113083080E481838081BE016F5F7F4F80EA99E00D
S113084095D50F90DF91CF911F910F91FF90EF906D
S1130850DF90CF90BF900895FF920F931F93CF9393
S1130860DF931F92CDB7DEB7082FF62E142F99D53C
S11308700F70006B8BE28983BE016F5F7F4F80EA4C
S113088099E05ED581E080936606E0EAF9E0918123
S113089095FFFDCF0093A009E0EAF9E0818186FF8E
S11308A0FDCFE0EAF9E080E481838081BE016F5FDF
S11308B07F4F80EA99E05AD50F2D0F7702950F707C
S11308C000618BE28983BE016F5F7F4F80EA99E00C
S11308D037D581E080936606E0EAF9E0818185FFFF
S11308E0FDCF0093A009E0EAF9E0818186FFFDCF06
S11308F0E0EAF9E080E481838081BE016F5F7F4F8D
S113090080EA99E033D50F2D0F708BE28983BE0105
S11309106F5F7F4F80EA99E013D581E0809366068C
S1130920E0EAF9E0818185FFFDCF0093A009E0EAC8
S1130930F9E0818186FFFDCFE0EAF9E080E481837C
S11309408081BE016F5F7F4F80EA99E00FD58BE213
S11309508983BE016F5F7F4F80EA99E0F1D481E023
S113096080936506E0EAF9E0818185FFFDCF10936D
S1130970A009E0EAF9E0818186FFFDCFE0EAF9E031
S113098080E48183808181E080936606BE016F5F8D
S11309907F4F80EA99E0EAD40F90DF91CF911F91C5
S11309A00F91FF9008950F931F93CF93DF931F929E
S11309B0CDB7DEB784E290E2EFD48BDD8BE289839E
S11309C0BE016F5F7F4F80EA99E0BAD481E08093E3
S11309D06606E0EAF9E0818185FFFDCF80E480933B
S11309E0A009E0EAF9E0818186FFFDCFE0EAF9E0C1
S11309F080E481838081BE016F5F7F4F80EA99E04C
S1130A00B5D400E00AC040E0612F802F25DF1F5FCE
S1130A101038C9F70F5F043011F010E0F4CF0F90D5
S1130A20DF91CF911F910F910895FF920F931F9320
S1130A30CF93DF9388238CF1603278F5D42FC82FBD
S1130A40F62EF694F694F6942F2D30E031952195F8
S1130A503109220F331F220F331F220F331F260F9A
S1130A60311D61E070E08B0102C0000F111F2A9557
S1130A70E2F7682F8F2DA3D4D13021F028F0D230A3
S1130A8039F007C0802B05C0602F6095862301C014
S1130A908027482F6C2F8F2DDFDEDF91CF911F91A0
S1130AA00F91FF9008958BC40895FC01918195FFE7
S1130AB0FDCF608380E090E00895FC01918199234B
S1130AC0ECF7808108952F923F924F925F926F923C
S1130AD07F928F929F92AF92BF92CF92DF92EF92CA
S1130AE0FF920F931F93CF931C012A013B014801EE
S1130AF05901D901C801689412F8B695A79597953C
S1130B0087951694D1F7B901A801032E36E176959D
S1130B106795579547953A95D1F7302DF101248182
S1130B2022FD08C0B695A795979587957695679504
S1130B305795479584159505A605B70508F4AAC0E9
S1130B40441655066606770608F4A6C0F1018481AA
S1130B5082FD04C0440C551C661C771CC501B401FD
S1130B60A3019201D3D62F3F31054105510508F465
S1130B7095C0C12CD12C7601CA94C9EF05C02C159F
S1130B803D054E055F0568F0CC0CDD1CEE1CFF1C1A
S1130B90CD3F14F46894C0F8CF5FC73081F78C2F31
S1130BA054C08C2FCC230CF050C0D301C201880F49
S1130BB0991FAA1FBB1F880F991FAA1FBB1F880F4D
S1130BC0991FAA1FBB1F85017401E81AF90A0A0BB1
S1130BD01B0BD801C701CE3FECF42DEF3FEF2C1BCC
S1130BE03109C7FD339504C0880F991FAA1FBB1F85
S1130BF02A95D2F773016201F694E794D794C794C7
S1130C00BC01CD016C0D7D1D8E1D9F1DA3019201A4
S1130C107DD636C023E02C0F8301720104C0EE0C94
S1130C20FF1C001F111F2A95D2F7A8019701670125
S1130C307801F694E794D794C794BC01CD016C0D68
S1130C407D1D8E1D9F1D62D61BC08D5FA301920169
S1130C5004C0220F331F441F551F8A95D2F7DA01AF
S1130C60C901B695A79597958795BC01CD01680DE7
S1130C70791D8A1D9B1D4AD621503109410951090C
S1130C80832F8F70C295C07FC82BF101C783268341
S1130C9081E01CC080E01AC080E018C0D301C2010A
S1130CA0880F991FAA1FBB1F880F991FAA1FBB1F5C
S1130CB0880F991FAA1FBB1F85017401E81AF90A3E
S1130CC00A0B1B0BD801C701C9EF87CFCF911F9126
S1130CD00F91FF90EF90DF90CF90BF90AF909F90D7
S1130CE08F907F906F905F904F903F902F900895DA
S1130CF00F931F93CF93DF93EC018B01009709F4BB
S1130D00E6C0803C910521F460E180E012D4DFC0AC
S1130D10C03881E0D80721F462E080E00AD4D7C06B
S1130D20C115E1E0DE0721F461E080E002D4CFC028
S1130D30C038F3E0DF0721F461E081E0FAD3C7C0F3
S1130D40C03983E0D80721F461E082E0F2D3BFC068
S1130D50C115E2E0DE0721F462E081E0EAD3B7C026
S1130D60C034F2E0DF0721F462E082E0E2D3AFC0F6
S1130D70C03283E0D80721F464E082E0DAD3A7C06C
S1130D80C115E8E0DE0721F461E083E0D2D39FC01F
S1130D90C115F9E0DF0721F461E084E0CAD397C00C
S1130DA0C1158AE0D80721F461E085E0C2D38FC081
S1130DB0C115EBE0DE0721F461E086E0BAD387C019
S1130DC0C034F8E0DF0721F462E083E0B2D37FC0EF
S1130DD0C03489E0D80721F462E084E0AAD377C064
S1130DE0C034EAE0DE0721F462E085E0A2D36FC0FC
S1130DF0C039F8E0DF0721F464E083E09AD367C0E8
S1130E00C03989E0D80721F464E084E092D35FC05C
S1130E10C039EAE0DE0721F464E085E08AD357C0F4
S1130E20C039FBE0DF0721F464E086E082D34FC0E1
S1130E30C03C88E0D80721F468E083E07AD347C057
S1130E40C03CE9E0DE0721F468E084E072D33FC0EF
S1130E50C03AF8E0DF0721F460E183E06AD337C0E9
S1130E60C03A89E0D80721F460E184E062D32FC05E
S1130E70C03AEAE0DE0721F460E185E05AD327C0F6
S1130E80C03AFBE0DF0721F460E186E052D31FC0E3
S1130E90C03B88E0D80721F460E283E04AD317C05E
S1130EA0C03BE9E0DE0721F460E284E042D30FC0F6
S1130EB0C038F4E0DF0721F460E483E03AD307C0EC
S1130EC0C03A84E0D80719F460E485E032D38D8118
S1130ED08F738D83F80194818581892B968191117B
S1130EE098E0892B8D83F80140815181628173815F
S1130EF000E018E428EE31E0CE01E5DD9C81986045
S1130F009C839C8190619C83DF91CF911F910F9171
S1130F100895CF92DF92EF92FF920F931F93CF9396
S1130F20DF93EC01D901C801B695A79597958795EC
S1130F30481759076A077B0770F46A017B01CC0CD8
S1130F40DD1CEE1CFF1CC901B801A7019601DED40B
S1130F502150310902C020E030E0832F8F708F834D
S1130F602E83DF91CF911F910F91FF90EF90DF902F
S1130F70CF900895EF92FF920F931F93CF93DF9337
S1130F80EC017B01009709F47BC1803C910521F4BD
S1130F9060E180E0CED274C18038914021F462E0F7
S1130FA080E0C7D26DC1C11581E0D80721F461E0AA
S1130FB080E0BFD265C1C038E3E0DE0721F461E020
S1130FC081E0B7D25DC1C039F3E0DF0721F461E00D
S1130FD082E0AFD255C1C11532E0D30721F462E0FB
S1130FE081E0A7D24DC1C03482E0D80721F462E089
S1130FF082E09FD245C1C032E3E0DE0721F464E021
S113100082E097D23DC1C115F8E0DF0721F461E029
S113101083E08FD235C1C11539E0D30721F461E0F3
S113102084E087D22DC1C1158AE0D80721F461E09C
S113103085E07FD225C1C115EBE0DE0721F461E034
S113104086E077D21DC1C034F8E0DF0721F462E006
S113105083E06FD215C1C03439E0D30721F462E0D4
S113106084E067D20DC1C0348AE0D80721F462E07D
S113107085E05FD205C1C039E8E0DE0721F464E011
S113108083E057D2FDC0C039F9E0DF0721F464E002
S113109084E04FD2F5C0C0393AE0D30721F464E0CC
S11310A085E047D2EDC0C0398BE0D80721F464E075
S11310B086E03FD2E5C0C03CE8E0DE0721F468E00A
S11310C083E037D2DDC0C03CF9E0DF0721F468E0FB
S11310D084E02FD2D5C0C03A38E0D30761F460E190
S11310E083E027D2E0EAF8E084818F7E8483F701ED
S11310F02481225043C0C03AF9E0DF0721F460E1C3
S113110084E017D2BDC0C03A3AE0D30721F460E1CD
S113111085E00FD2B5C0C03A8BE0D80721F460E176
S113112086E007D2ADC0C03BE8E0DE0721F460E210
S113113083E0FFD1A5C0C03BF9E0DF0721F460E202
S113114084E0F7D19DC0C03834E0D30721F460E4D3
S113115083E0EFD195C0C03A84E0D80721F460E47D
S113116085E0E7D18DC08C818F7E8C83FB01248147
S11311702250CE01C03AF8E0DF0731F480914E06E8
S113118084FD86C011E185C0803B38E0930779F087
S1131190803AE9E09E0731F430916E0634FD7CC05C
S11311A019E110C0803BF9E09F07A9F001C015E1E7
S11311B0803A3AE0930731F480918E0684FD6EC044
S11311C011E20CC0803A9B4049F48091AE0684FD44
S11311D004C019E203C01DE101C01DE2E12FE69540
S11311E0E695E69530E2E39FF0011124FA5F17706B
S11311F081E090E0012E02C0880F991F0A94E2F763
S11312008183223010F040E001C040E4DF015096B9
S1131210A10FB11D3FB7F8942C9127702C939C918A
S1131220942B9C933FBF85838D81806C8D83F701C4
S113123084818D7F813021F48D8182608D8303C010
S11312408D818D7F8D83F7018581882321F08D81A8
S113125084608D8303C08D818B7F8D83F7014081F2
S113126051816281738100E018E428EE31E0CE01FF
S113127050DE8C8188608C838C8180618C8310C06B
S11312808C818F7E8C83F70124812250CE017CCF08
S113129015E180EA98E086CF1DE194CF15E29ECF58
S11312A0DF91CF911F910F91FF90EF900895803AB5
S11312B028E0920721F460E183E03BC10895803B7C
S11312C028E0920721F460E283E033C10895803A74
S11312D029E0920721F460E184E02BC10895803B6A
S11312E029E0920721F460E284E023C10895803A62
S11312F02AE0920721F460E185E01BC10895803A59
S11313009B4019F460E186E014C108950F931F9384
S1131310CF93DF9300D000D0CDB7DEB709831A8313
S11313202B833C834D831E82BE016F5F7F4F22DE81
S11313302696CDBFDEBFDF91CF911F910F91089507
S1131340FB018081E82FE695E695E69540E2E49F6F
S1131350F0011124FA5F877021E030E0A90102C096
S1131360440F551F8A95E2F746830895FB01808157
S1131370E82FE695E695E69540E2E49FF001112416
S1131380FA5F877021E030E0A90102C0440F551FC5
S11313908A95E2F745830895809324229093252229
S11313A0089520E8829FC0011124860F911DE091C9
S11313B02422F0912522E80FF91F4083089520E8A4
S11313C0829FC0011124860F911DE0912422F09187
S11313D02522E80FF91F80810895FF920F931F9330
S11313E0CF93DF93E42FF0E0E80FF11DE138F1052E
S11313F01CF0C0E84C2F481B442309F453C0D62FDB
S1131400D695D695D695ED2FF0E0F195E195F109B5
S1131410EE0FFF1FEE0FFF1FEE0FFF1FDF01A60FE2
S1131420B11DBD01E1E0F0E0DF0102C0AA0FBB1F66
S11314306A95E2F7FA2E213021F098F0223019F162
S113144031C0C42F1FEF180F012F0C0F602F8D2FE9
S11314502ADB482F4F29602F8D2FFED9C150A1F7C9
S113146021C0C42F1FEF180FFA2EF094012F0C0F78
S1131470602F8D2F18DB482F4F21602F8D2FECD933
S1131480C150A1F70FC0C42F1FEF180F012F0C0F6D
S1131490602F8D2F08DB482F4F25602F8D2FDCD92F
S11314A0C150A1F7DF91CF911F910F91FF90089543
S11314B0FF920F931F93CF93DF93222369F0C22FE0
S11314C0F42E182FDFEFD60F6D2F6C0F202F4F2D1A
S11314D0812F83DFC150C1F7DF91CF911F910F910D
S11314E0FF9008958FEF8093700080937100809334
S11314F072008093730080937400809375008093CE
S113150076009FB7F894E0E5F0E080818260808304
S11315109FBF818181FFFDCF61E080E490E09BD09B
S11315209FB7F894E0E5F0E080818E7F80839FBFD1
S113153008959FB7F894E82FF0E0E059FF4F6095C5
S11315408081682360839FBF0895AF92BF92CF923A
S1131550DF92EF92FF920F931F93CF93DF93C82FE5
S1131560E62EB42E690100E0F901248143816B2D3C
S11315708E2D9EDFF6018081811139C08381282F51
S1131580269526952695877009F02F5FF601A4808D
S11315902A9D900111248C2F90E04581841B910990
S11315A0289FA001299F500D389F500D11240181BF
S11315B01281040F151FF601F380FF20A1F0D0E083
S11315C0C0E08C2F8E0D9C2F977021F4F801D491DC
S11315D00F5F1F4FDD231CF441E06B2D26DADD0F76
S11315E0CF5FCF11EECFB394AA94A110E4CFDF91D3
S11315F0CF911F910F91FF90EF90DF90CF90BF900C
S1131600AF900895DF92EF92FF920F931F93CF93C1
S1131610DF93042F7901EC01162FD62E89918A309D
S113162031F4F70184818F5F080F1D2D09C08D30BF
S113163039F09701402F612F88DFF7018381180F5C
S113164088818111EBCFDF91CF911F910F91FF9092
S1131650EF90DF9008951BBEFC0128ED24BF60834A
S11316600895CF93DF93FC01709620E030E0C62FFD
S1131670D0E0DE01022E02C0B595A7950A94E2F7E8
S1131680A0FD50832F5F3F4F31962830310589F7F5
S113169040FF0AC041FF03C0FC01658302C0FC0196
S11316A06683FC01618302C0FC016283DF91CF91F8
S11316B0089543E050E061E080EE97E0D2DF43E03C
S11316C050E062E080EE97E0CCDF43E050E060E180
S11316D080E696E0C6DF41E050E460E280E696E012
S11316E0C0DF40E05BE160E280E896E0BADF40E022
S11316F05BE162E080EA96E0B4DF40E05BE164E055
S113170080EA96E0AEDF43E050E062E080E696E0F7
S1131710A8DF43E050E068E080E696E0A2DF43E023
S113172050E068E080EA96E09CDF43E050E061E04E
S113173080E696E096DF43E050E068E080E096E0E3
S113174090DF41E050E060E180E896E08ADF43E02A
S113175050E062E080E696E084DF43E050E068E039
S113176080E696E07EDF40E050E064E080E696E0CC
S113177078DF43E050E060E180EA96E072DF40E029
S113178050E061E080E096E06CDF40E050E064E02F
S113179080E096E066DF40E050E062E080E296E0C0
S11317A060DF43E050E068E080E496E05ADF40E028
S11317B050E064E080E496E054DF43E050E068E009
S11317C080E696E04EDF40E050E064E080E696E09C
S11317D048DF43E050E068E080E896E042DF40E024
S11317E050E064E080E896E03CCF08951092A708AA
S11317F08CE08093A6081092A30883E08093A50848
S113180088E18093A4080895CF93DF93FC0160815D
S1131810662341F0EC01219680EA98E046D969916B
S11318206111FACFDF91CF910895CF93DF93C6E290
S1131830D2E280EA98E041D98A3011F08993F9CF55
S1131840DF91CF91089535DF4DDEADD880E18093EF
S1131850850688E0809345068093410684E0809362
S1131860460680934206C2DF67E070E280EA98E0B1
S11318703FDAC0EAD6E000E616E06894AA24A5F8A8
S11318806894BB24B4F80F2EFAEACF2EF02D0F2E55
S1131890F1E1DF2EF02D6894EE24E2F8F12C888536
S11318A081FD0AC0888582FF07C0F801B682A5823F
S11318B08EE090E2A9DF19C0888582FD0AC0888580
S11318C081FF07C0F801A682B58285E190E29CDF22
S11318D00CC0888581FF09C0888582FF06C0F80195
S11318E0A582B5828DE190E28FDF9FDF20E030E2B8
S11318F040E060E086E292E285DE8C2D9D2DAE2DE7
S1131900BF2D0197A109B109E1F7C9CFA1E21A2EB0
S1131910AA1BBB1BFD010DC0AA1FBB1FEE1FFF1F8F
S1131920A217B307E407F50720F0A21BB30BE40BDF
S1131930F50B661F771F881F991F1A9469F7609526
S11319407095809590959B01AC01BD01CF010895E0
S1071950F894FFCF35
S113195400FC010607207D8025000003000061745B
S11319646173200A006261776168200A0064696116
S10719746D200A00D4
S9030000FC
